{
  "_format": "hh-sol-artifact-1",
  "contractName": "iSai",
  "sourceName": "contracts/iSai.sol",
  "abi": [
    {
      "inputs": [],
      "stateMutability": "nonpayable",
      "type": "constructor"
    },
    {
      "anonymous": false,
      "inputs": [
        {
          "indexed": true,
          "internalType": "address",
          "name": "owner",
          "type": "address"
        },
        {
          "indexed": true,
          "internalType": "address",
          "name": "approved",
          "type": "address"
        },
        {
          "indexed": true,
          "internalType": "uint256",
          "name": "tokenId",
          "type": "uint256"
        }
      ],
      "name": "Approval",
      "type": "event"
    },
    {
      "anonymous": false,
      "inputs": [
        {
          "indexed": true,
          "internalType": "address",
          "name": "owner",
          "type": "address"
        },
        {
          "indexed": true,
          "internalType": "address",
          "name": "operator",
          "type": "address"
        },
        {
          "indexed": false,
          "internalType": "bool",
          "name": "approved",
          "type": "bool"
        }
      ],
      "name": "ApprovalForAll",
      "type": "event"
    },
    {
      "anonymous": false,
      "inputs": [
        {
          "indexed": true,
          "internalType": "address",
          "name": "previousOwner",
          "type": "address"
        },
        {
          "indexed": true,
          "internalType": "address",
          "name": "newOwner",
          "type": "address"
        }
      ],
      "name": "OwnershipTransferred",
      "type": "event"
    },
    {
      "anonymous": false,
      "inputs": [
        {
          "indexed": true,
          "internalType": "address",
          "name": "from",
          "type": "address"
        },
        {
          "indexed": true,
          "internalType": "address",
          "name": "to",
          "type": "address"
        },
        {
          "indexed": true,
          "internalType": "uint256",
          "name": "tokenId",
          "type": "uint256"
        }
      ],
      "name": "Transfer",
      "type": "event"
    },
    {
      "inputs": [
        {
          "internalType": "address",
          "name": "_address",
          "type": "address"
        },
        {
          "internalType": "string",
          "name": "_tokenURI",
          "type": "string"
        }
      ],
      "name": "airdropMint",
      "outputs": [],
      "stateMutability": "nonpayable",
      "type": "function"
    },
    {
      "inputs": [
        {
          "internalType": "address",
          "name": "to",
          "type": "address"
        },
        {
          "internalType": "uint256",
          "name": "tokenId",
          "type": "uint256"
        }
      ],
      "name": "approve",
      "outputs": [],
      "stateMutability": "nonpayable",
      "type": "function"
    },
    {
      "inputs": [
        {
          "internalType": "address",
          "name": "owner",
          "type": "address"
        }
      ],
      "name": "balanceOf",
      "outputs": [
        {
          "internalType": "uint256",
          "name": "",
          "type": "uint256"
        }
      ],
      "stateMutability": "view",
      "type": "function"
    },
    {
      "inputs": [
        {
          "internalType": "uint256",
          "name": "tokenId",
          "type": "uint256"
        }
      ],
      "name": "getApproved",
      "outputs": [
        {
          "internalType": "address",
          "name": "",
          "type": "address"
        }
      ],
      "stateMutability": "view",
      "type": "function"
    },
    {
      "inputs": [
        {
          "internalType": "address",
          "name": "",
          "type": "address"
        }
      ],
      "name": "hasMinted",
      "outputs": [
        {
          "internalType": "uint256",
          "name": "",
          "type": "uint256"
        }
      ],
      "stateMutability": "view",
      "type": "function"
    },
    {
      "inputs": [
        {
          "internalType": "address",
          "name": "owner",
          "type": "address"
        },
        {
          "internalType": "address",
          "name": "operator",
          "type": "address"
        }
      ],
      "name": "isApprovedForAll",
      "outputs": [
        {
          "internalType": "bool",
          "name": "",
          "type": "bool"
        }
      ],
      "stateMutability": "view",
      "type": "function"
    },
    {
      "inputs": [],
      "name": "name",
      "outputs": [
        {
          "internalType": "string",
          "name": "",
          "type": "string"
        }
      ],
      "stateMutability": "view",
      "type": "function"
    },
    {
      "inputs": [],
      "name": "owner",
      "outputs": [
        {
          "internalType": "address",
          "name": "",
          "type": "address"
        }
      ],
      "stateMutability": "view",
      "type": "function"
    },
    {
      "inputs": [
        {
          "internalType": "uint256",
          "name": "tokenId",
          "type": "uint256"
        }
      ],
      "name": "ownerOf",
      "outputs": [
        {
          "internalType": "address",
          "name": "",
          "type": "address"
        }
      ],
      "stateMutability": "view",
      "type": "function"
    },
    {
      "inputs": [],
      "name": "renounceOwnership",
      "outputs": [],
      "stateMutability": "nonpayable",
      "type": "function"
    },
    {
      "inputs": [
        {
          "internalType": "string",
          "name": "_tokenURI",
          "type": "string"
        }
      ],
      "name": "safeMint",
      "outputs": [],
      "stateMutability": "nonpayable",
      "type": "function"
    },
    {
      "inputs": [
        {
          "internalType": "address",
          "name": "from",
          "type": "address"
        },
        {
          "internalType": "address",
          "name": "to",
          "type": "address"
        },
        {
          "internalType": "uint256",
          "name": "tokenId",
          "type": "uint256"
        }
      ],
      "name": "safeTransferFrom",
      "outputs": [],
      "stateMutability": "nonpayable",
      "type": "function"
    },
    {
      "inputs": [
        {
          "internalType": "address",
          "name": "from",
          "type": "address"
        },
        {
          "internalType": "address",
          "name": "to",
          "type": "address"
        },
        {
          "internalType": "uint256",
          "name": "tokenId",
          "type": "uint256"
        },
        {
          "internalType": "bytes",
          "name": "_data",
          "type": "bytes"
        }
      ],
      "name": "safeTransferFrom",
      "outputs": [],
      "stateMutability": "nonpayable",
      "type": "function"
    },
    {
      "inputs": [
        {
          "internalType": "address",
          "name": "operator",
          "type": "address"
        },
        {
          "internalType": "bool",
          "name": "approved",
          "type": "bool"
        }
      ],
      "name": "setApprovalForAll",
      "outputs": [],
      "stateMutability": "nonpayable",
      "type": "function"
    },
    {
      "inputs": [
        {
          "internalType": "bytes4",
          "name": "interfaceId",
          "type": "bytes4"
        }
      ],
      "name": "supportsInterface",
      "outputs": [
        {
          "internalType": "bool",
          "name": "",
          "type": "bool"
        }
      ],
      "stateMutability": "view",
      "type": "function"
    },
    {
      "inputs": [],
      "name": "symbol",
      "outputs": [
        {
          "internalType": "string",
          "name": "",
          "type": "string"
        }
      ],
      "stateMutability": "view",
      "type": "function"
    },
    {
      "inputs": [
        {
          "internalType": "uint256",
          "name": "index",
          "type": "uint256"
        }
      ],
      "name": "tokenByIndex",
      "outputs": [
        {
          "internalType": "uint256",
          "name": "",
          "type": "uint256"
        }
      ],
      "stateMutability": "view",
      "type": "function"
    },
    {
      "inputs": [
        {
          "internalType": "address",
          "name": "owner",
          "type": "address"
        },
        {
          "internalType": "uint256",
          "name": "index",
          "type": "uint256"
        }
      ],
      "name": "tokenOfOwnerByIndex",
      "outputs": [
        {
          "internalType": "uint256",
          "name": "",
          "type": "uint256"
        }
      ],
      "stateMutability": "view",
      "type": "function"
    },
    {
      "inputs": [
        {
          "internalType": "uint256",
          "name": "_tokenId",
          "type": "uint256"
        }
      ],
      "name": "tokenURI",
      "outputs": [
        {
          "internalType": "string",
          "name": "",
          "type": "string"
        }
      ],
      "stateMutability": "view",
      "type": "function"
    },
    {
      "inputs": [],
      "name": "totalSupply",
      "outputs": [
        {
          "internalType": "uint256",
          "name": "",
          "type": "uint256"
        }
      ],
      "stateMutability": "view",
      "type": "function"
    },
    {
      "inputs": [
        {
          "internalType": "address",
          "name": "from",
          "type": "address"
        },
        {
          "internalType": "address",
          "name": "to",
          "type": "address"
        },
        {
          "internalType": "uint256",
          "name": "tokenId",
          "type": "uint256"
        }
      ],
      "name": "transferFrom",
      "outputs": [],
      "stateMutability": "nonpayable",
      "type": "function"
    },
    {
      "inputs": [
        {
          "internalType": "address",
          "name": "newOwner",
          "type": "address"
        }
      ],
      "name": "transferOwnership",
      "outputs": [],
      "stateMutability": "nonpayable",
      "type": "function"
    }
  ],
  "bytecode": "0x60806040523480156200001157600080fd5b506040518060400160405280600481526020017f69536169000000000000000000000000000000000000000000000000000000008152506040518060400160405280600481526020017f6953616900000000000000000000000000000000000000000000000000000000815250816000908051906020019062000096929190620001a6565b508060019080519060200190620000af929190620001a6565b505050620000d2620000c6620000d860201b60201c565b620000e060201b60201c565b620002bb565b600033905090565b6000600a60009054906101000a900473ffffffffffffffffffffffffffffffffffffffff16905081600a60006101000a81548173ffffffffffffffffffffffffffffffffffffffff021916908373ffffffffffffffffffffffffffffffffffffffff1602179055508173ffffffffffffffffffffffffffffffffffffffff168173ffffffffffffffffffffffffffffffffffffffff167f8be0079c531659141344cd1fd0a4f28419497f9722a3daafe3b4186f6b6457e060405160405180910390a35050565b828054620001b49062000256565b90600052602060002090601f016020900481019282620001d8576000855562000224565b82601f10620001f357805160ff191683800117855562000224565b8280016001018555821562000224579182015b828111156200022357825182559160200191906001019062000206565b5b50905062000233919062000237565b5090565b5b808211156200025257600081600090555060010162000238565b5090565b600060028204905060018216806200026f57607f821691505b602082108114156200028657620002856200028c565b5b50919050565b7f4e487b7100000000000000000000000000000000000000000000000000000000600052602260045260246000fd5b612aad80620002cb6000396000f3fe608060405234801561001057600080fd5b50600436106101425760003560e01c8063695850fb116100b857806395d89b411161007c57806395d89b4114610387578063a22cb465146103a5578063b88d4fde146103c1578063c87b56dd146103dd578063e985e9c51461040d578063f2fde38b1461043d57610142565b8063695850fb146102f75780636a6385c01461031357806370a082311461032f578063715018a61461035f5780638da5cb5b1461036957610142565b806323b872dd1161010a57806323b872dd146101ff5780632f745c591461021b57806338e21cce1461024b57806342842e0e1461027b5780634f6ccce7146102975780636352211e146102c757610142565b806301ffc9a71461014757806306fdde0314610177578063081812fc14610195578063095ea7b3146101c557806318160ddd146101e1575b600080fd5b610161600480360381019061015c9190611e7b565b610459565b60405161016e9190612204565b60405180910390f35b61017f6104d3565b60405161018c919061221f565b60405180910390f35b6101af60048036038101906101aa9190611f0e565b610565565b6040516101bc919061219d565b60405180910390f35b6101df60048036038101906101da9190611e3f565b6105ab565b005b6101e96105e6565b6040516101f691906123e1565b60405180910390f35b61021960048036038101906102149190611ce5565b6105f3565b005b61023560048036038101906102309190611e3f565b61062e565b60405161024291906123e1565b60405180910390f35b61026560048036038101906102609190611c80565b6106d3565b60405161027291906123e1565b60405180910390f35b61029560048036038101906102909190611ce5565b6106eb565b005b6102b160048036038101906102ac9190611f0e565b610726565b6040516102be91906123e1565b60405180910390f35b6102e160048036038101906102dc9190611f0e565b6107bd565b6040516102ee919061219d565b60405180910390f35b610311600480360381019061030c9190611ecd565b610844565b005b61032d60048036038101906103289190611deb565b610874565b005b61034960048036038101906103449190611c80565b61097e565b60405161035691906123e1565b60405180910390f35b610367610a36565b005b610371610a4a565b60405161037e919061219d565b60405180910390f35b61038f610a74565b60405161039c919061221f565b60405180910390f35b6103bf60048036038101906103ba9190611daf565b610b06565b005b6103db60048036038101906103d69190611d34565b610b41565b005b6103f760048036038101906103f29190611f0e565b610b7c565b604051610404919061221f565b60405180910390f35b61042760048036038101906104229190611ca9565b610ca6565b6040516104349190612204565b60405180910390f35b61045760048036038101906104529190611c80565b610d3a565b005b60007f780e9d63000000000000000000000000000000000000000000000000000000007bffffffffffffffffffffffffffffffffffffffffffffffffffffffff1916827bffffffffffffffffffffffffffffffffffffffffffffffffffffffff191614806104cc57506104cb82610dbe565b5b9050919050565b6060600080546104e2906125fb565b80601f016020809104026020016040519081016040528092919081815260200182805461050e906125fb565b801561055b5780601f106105305761010080835404028352916020019161055b565b820191906000526020600020905b81548152906001019060200180831161053e57829003601f168201915b5050505050905090565b600061057082610ea0565b6004600083815260200190815260200160002060009054906101000a900473ffffffffffffffffffffffffffffffffffffffff169050919050565b6040517f08c379a00000000000000000000000000000000000000000000000000000000081526004016105dd90612241565b60405180910390fd5b6000600880549050905090565b6040517f08c379a000000000000000000000000000000000000000000000000000000000815260040161062590612241565b60405180910390fd5b60006106398361097e565b821061067a576040517f08c379a000000000000000000000000000000000000000000000000000000000815260040161067190612261565b60405180910390fd5b600660008473ffffffffffffffffffffffffffffffffffffffff1673ffffffffffffffffffffffffffffffffffffffff168152602001908152602001600020600083815260200190815260200160002054905092915050565b600e6020528060005260406000206000915090505481565b6040517f08c379a000000000000000000000000000000000000000000000000000000000815260040161071d90612241565b60405180910390fd5b60006107306105e6565b8210610771576040517f08c379a0000000000000000000000000000000000000000000000000000000008152600401610768906123a1565b60405180910390fd5b600882815481106107ab577f4e487b7100000000000000000000000000000000000000000000000000000000600052603260045260246000fd5b90600052602060002001549050919050565b6000806107c983610eeb565b9050600073ffffffffffffffffffffffffffffffffffffffff168173ffffffffffffffffffffffffffffffffffffffff16141561083b576040517f08c379a000000000000000000000000000000000000000000000000000000000815260040161083290612381565b60405180910390fd5b80915050919050565b6000610850600c610f28565b905061085c600c610f36565b6108663382610f4c565b6108708183610f6a565b5050565b6003600e60003373ffffffffffffffffffffffffffffffffffffffff1673ffffffffffffffffffffffffffffffffffffffff16815260200190815260200160002054106108f6576040517f08c379a00000000000000000000000000000000000000000000000000000000081526004016108ed906122e1565b60405180910390fd5b6001600e60003373ffffffffffffffffffffffffffffffffffffffff1673ffffffffffffffffffffffffffffffffffffffff168152602001908152602001600020600082825461094691906124bb565b925050819055506000610959600c610f28565b9050610965600c610f36565b61096f8382610f4c565b6109798183610f6a565b505050565b60008073ffffffffffffffffffffffffffffffffffffffff168273ffffffffffffffffffffffffffffffffffffffff1614156109ef576040517f08c379a00000000000000000000000000000000000000000000000000000000081526004016109e690612301565b60405180910390fd5b600360008373ffffffffffffffffffffffffffffffffffffffff1673ffffffffffffffffffffffffffffffffffffffff168152602001908152602001600020549050919050565b610a3e610f96565b610a486000611014565b565b6000600a60009054906101000a900473ffffffffffffffffffffffffffffffffffffffff16905090565b606060018054610a83906125fb565b80601f0160208091040260200160405190810160405280929190818152602001828054610aaf906125fb565b8015610afc5780601f10610ad157610100808354040283529160200191610afc565b820191906000526020600020905b815481529060010190602001808311610adf57829003601f168201915b5050505050905090565b6040517f08c379a0000000000000000000000000000000000000000000000000000000008152600401610b3890612241565b60405180910390fd5b6040517f08c379a0000000000000000000000000000000000000000000000000000000008152600401610b7390612241565b60405180910390fd5b6060610b87826110da565b610bc6576040517f08c379a0000000000000000000000000000000000000000000000000000000008152600401610bbd90612361565b60405180910390fd5b6000600d60008481526020019081526020016000208054610be6906125fb565b905011610c025760405180602001604052806000815250610c9f565b600d60008381526020019081526020016000208054610c20906125fb565b80601f0160208091040260200160405190810160405280929190818152602001828054610c4c906125fb565b8015610c995780601f10610c6e57610100808354040283529160200191610c99565b820191906000526020600020905b815481529060010190602001808311610c7c57829003601f168201915b50505050505b9050919050565b6000600560008473ffffffffffffffffffffffffffffffffffffffff1673ffffffffffffffffffffffffffffffffffffffff16815260200190815260200160002060008373ffffffffffffffffffffffffffffffffffffffff1673ffffffffffffffffffffffffffffffffffffffff16815260200190815260200160002060009054906101000a900460ff16905092915050565b610d42610f96565b600073ffffffffffffffffffffffffffffffffffffffff168173ffffffffffffffffffffffffffffffffffffffff161415610db2576040517f08c379a0000000000000000000000000000000000000000000000000000000008152600401610da9906122a1565b60405180910390fd5b610dbb81611014565b50565b60007f80ac58cd000000000000000000000000000000000000000000000000000000007bffffffffffffffffffffffffffffffffffffffffffffffffffffffff1916827bffffffffffffffffffffffffffffffffffffffffffffffffffffffff19161480610e8957507f5b5e139f000000000000000000000000000000000000000000000000000000007bffffffffffffffffffffffffffffffffffffffffffffffffffffffff1916827bffffffffffffffffffffffffffffffffffffffffffffffffffffffff1916145b80610e995750610e988261111b565b5b9050919050565b610ea9816110da565b610ee8576040517f08c379a0000000000000000000000000000000000000000000000000000000008152600401610edf90612381565b60405180910390fd5b50565b60006002600083815260200190815260200160002060009054906101000a900473ffffffffffffffffffffffffffffffffffffffff169050919050565b600081600001549050919050565b6001816000016000828254019250508190555050565b610f66828260405180602001604052806000815250611185565b5050565b80600d60008481526020019081526020016000209080519060200190610f91929190611aa4565b505050565b610f9e6111e0565b73ffffffffffffffffffffffffffffffffffffffff16610fbc610a4a565b73ffffffffffffffffffffffffffffffffffffffff1614611012576040517f08c379a000000000000000000000000000000000000000000000000000000000815260040161100990612341565b60405180910390fd5b565b6000600a60009054906101000a900473ffffffffffffffffffffffffffffffffffffffff16905081600a60006101000a81548173ffffffffffffffffffffffffffffffffffffffff021916908373ffffffffffffffffffffffffffffffffffffffff1602179055508173ffffffffffffffffffffffffffffffffffffffff168173ffffffffffffffffffffffffffffffffffffffff167f8be0079c531659141344cd1fd0a4f28419497f9722a3daafe3b4186f6b6457e060405160405180910390a35050565b60008073ffffffffffffffffffffffffffffffffffffffff166110fc83610eeb565b73ffffffffffffffffffffffffffffffffffffffff1614159050919050565b60007f01ffc9a7000000000000000000000000000000000000000000000000000000007bffffffffffffffffffffffffffffffffffffffffffffffffffffffff1916827bffffffffffffffffffffffffffffffffffffffffffffffffffffffff1916149050919050565b61118f83836111e8565b61119c6000848484611406565b6111db576040517f08c379a00000000000000000000000000000000000000000000000000000000081526004016111d290612281565b60405180910390fd5b505050565b600033905090565b600073ffffffffffffffffffffffffffffffffffffffff168273ffffffffffffffffffffffffffffffffffffffff161415611258576040517f08c379a000000000000000000000000000000000000000000000000000000000815260040161124f90612321565b60405180910390fd5b611261816110da565b156112a1576040517f08c379a0000000000000000000000000000000000000000000000000000000008152600401611298906122c1565b60405180910390fd5b6112af60008383600161159d565b6112b8816110da565b156112f8576040517f08c379a00000000000000000000000000000000000000000000000000000000081526004016112ef906122c1565b60405180910390fd5b6001600360008473ffffffffffffffffffffffffffffffffffffffff1673ffffffffffffffffffffffffffffffffffffffff16815260200190815260200160002060008282540192505081905550816002600083815260200190815260200160002060006101000a81548173ffffffffffffffffffffffffffffffffffffffff021916908373ffffffffffffffffffffffffffffffffffffffff160217905550808273ffffffffffffffffffffffffffffffffffffffff16600073ffffffffffffffffffffffffffffffffffffffff167fddf252ad1be2c89b69c2b068fc378daa952ba7f163c4a11628f55a4df523b3ef60405160405180910390a46114026000838360016116fd565b5050565b60006114278473ffffffffffffffffffffffffffffffffffffffff16611703565b15611590578373ffffffffffffffffffffffffffffffffffffffff1663150b7a026114506111e0565b8786866040518563ffffffff1660e01b815260040161147294939291906121b8565b602060405180830381600087803b15801561148c57600080fd5b505af19250505080156114bd57506040513d601f19601f820116820180604052508101906114ba9190611ea4565b60015b611540573d80600081146114ed576040519150601f19603f3d011682016040523d82523d6000602084013e6114f2565b606091505b50600081511415611538576040517f08c379a000000000000000000000000000000000000000000000000000000000815260040161152f90612281565b60405180910390fd5b805181602001fd5b63150b7a0260e01b7bffffffffffffffffffffffffffffffffffffffffffffffffffffffff1916817bffffffffffffffffffffffffffffffffffffffffffffffffffffffff191614915050611595565b600190505b949350505050565b6115a984848484611726565b60018111156115ed576040517f08c379a00000000000000000000000000000000000000000000000000000000081526004016115e4906123c1565b60405180910390fd5b6000829050600073ffffffffffffffffffffffffffffffffffffffff168573ffffffffffffffffffffffffffffffffffffffff161415611635576116308161172c565b611674565b8373ffffffffffffffffffffffffffffffffffffffff168573ffffffffffffffffffffffffffffffffffffffff1614611673576116728582611775565b5b5b600073ffffffffffffffffffffffffffffffffffffffff168473ffffffffffffffffffffffffffffffffffffffff1614156116b7576116b2816118e2565b6116f6565b8473ffffffffffffffffffffffffffffffffffffffff168473ffffffffffffffffffffffffffffffffffffffff16146116f5576116f48482611a25565b5b5b5050505050565b50505050565b6000808273ffffffffffffffffffffffffffffffffffffffff163b119050919050565b50505050565b6008805490506009600083815260200190815260200160002081905550600881908060018154018082558091505060019003906000526020600020016000909190919091505550565b600060016117828461097e565b61178c9190612511565b9050600060076000848152602001908152602001600020549050818114611871576000600660008673ffffffffffffffffffffffffffffffffffffffff1673ffffffffffffffffffffffffffffffffffffffff168152602001908152602001600020600084815260200190815260200160002054905080600660008773ffffffffffffffffffffffffffffffffffffffff1673ffffffffffffffffffffffffffffffffffffffff168152602001908152602001600020600084815260200190815260200160002081905550816007600083815260200190815260200160002081905550505b6007600084815260200190815260200160002060009055600660008573ffffffffffffffffffffffffffffffffffffffff1673ffffffffffffffffffffffffffffffffffffffff16815260200190815260200160002060008381526020019081526020016000206000905550505050565b600060016008805490506118f69190612511565b905060006009600084815260200190815260200160002054905060006008838154811061194c577f4e487b7100000000000000000000000000000000000000000000000000000000600052603260045260246000fd5b906000526020600020015490508060088381548110611994577f4e487b7100000000000000000000000000000000000000000000000000000000600052603260045260246000fd5b906000526020600020018190555081600960008381526020019081526020016000208190555060096000858152602001908152602001600020600090556008805480611a09577f4e487b7100000000000000000000000000000000000000000000000000000000600052603160045260246000fd5b6001900381819060005260206000200160009055905550505050565b6000611a308361097e565b905081600660008573ffffffffffffffffffffffffffffffffffffffff1673ffffffffffffffffffffffffffffffffffffffff168152602001908152602001600020600083815260200190815260200160002081905550806007600084815260200190815260200160002081905550505050565b828054611ab0906125fb565b90600052602060002090601f016020900481019282611ad25760008555611b19565b82601f10611aeb57805160ff1916838001178555611b19565b82800160010185558215611b19579182015b82811115611b18578251825591602001919060010190611afd565b5b509050611b269190611b2a565b5090565b5b80821115611b43576000816000905550600101611b2b565b5090565b6000611b5a611b5584612421565b6123fc565b905082815260208101848484011115611b7257600080fd5b611b7d8482856125b9565b509392505050565b6000611b98611b9384612452565b6123fc565b905082815260208101848484011115611bb057600080fd5b611bbb8482856125b9565b509392505050565b600081359050611bd281612a1b565b92915050565b600081359050611be781612a32565b92915050565b600081359050611bfc81612a49565b92915050565b600081519050611c1181612a49565b92915050565b600082601f830112611c2857600080fd5b8135611c38848260208601611b47565b91505092915050565b600082601f830112611c5257600080fd5b8135611c62848260208601611b85565b91505092915050565b600081359050611c7a81612a60565b92915050565b600060208284031215611c9257600080fd5b6000611ca084828501611bc3565b91505092915050565b60008060408385031215611cbc57600080fd5b6000611cca85828601611bc3565b9250506020611cdb85828601611bc3565b9150509250929050565b600080600060608486031215611cfa57600080fd5b6000611d0886828701611bc3565b9350506020611d1986828701611bc3565b9250506040611d2a86828701611c6b565b9150509250925092565b60008060008060808587031215611d4a57600080fd5b6000611d5887828801611bc3565b9450506020611d6987828801611bc3565b9350506040611d7a87828801611c6b565b925050606085013567ffffffffffffffff811115611d9757600080fd5b611da387828801611c17565b91505092959194509250565b60008060408385031215611dc257600080fd5b6000611dd085828601611bc3565b9250506020611de185828601611bd8565b9150509250929050565b60008060408385031215611dfe57600080fd5b6000611e0c85828601611bc3565b925050602083013567ffffffffffffffff811115611e2957600080fd5b611e3585828601611c41565b9150509250929050565b60008060408385031215611e5257600080fd5b6000611e6085828601611bc3565b9250506020611e7185828601611c6b565b9150509250929050565b600060208284031215611e8d57600080fd5b6000611e9b84828501611bed565b91505092915050565b600060208284031215611eb657600080fd5b6000611ec484828501611c02565b91505092915050565b600060208284031215611edf57600080fd5b600082013567ffffffffffffffff811115611ef957600080fd5b611f0584828501611c41565b91505092915050565b600060208284031215611f2057600080fd5b6000611f2e84828501611c6b565b91505092915050565b611f4081612545565b82525050565b611f4f81612557565b82525050565b6000611f6082612483565b611f6a8185612499565b9350611f7a8185602086016125c8565b611f83816126eb565b840191505092915050565b6000611f998261248e565b611fa381856124aa565b9350611fb38185602086016125c8565b611fbc816126eb565b840191505092915050565b6000611fd4601d836124aa565b9150611fdf826126fc565b602082019050919050565b6000611ff7602b836124aa565b915061200282612725565b604082019050919050565b600061201a6032836124aa565b915061202582612774565b604082019050919050565b600061203d6026836124aa565b9150612048826127c3565b604082019050919050565b6000612060601c836124aa565b915061206b82612812565b602082019050919050565b60006120836017836124aa565b915061208e8261283b565b602082019050919050565b60006120a66029836124aa565b91506120b182612864565b604082019050919050565b60006120c96020836124aa565b91506120d4826128b3565b602082019050919050565b60006120ec6020836124aa565b91506120f7826128dc565b602082019050919050565b600061210f602f836124aa565b915061211a82612905565b604082019050919050565b60006121326018836124aa565b915061213d82612954565b602082019050919050565b6000612155602c836124aa565b91506121608261297d565b604082019050919050565b60006121786035836124aa565b9150612183826129cc565b604082019050919050565b612197816125af565b82525050565b60006020820190506121b26000830184611f37565b92915050565b60006080820190506121cd6000830187611f37565b6121da6020830186611f37565b6121e7604083018561218e565b81810360608301526121f98184611f55565b905095945050505050565b60006020820190506122196000830184611f46565b92915050565b600060208201905081810360008301526122398184611f8e565b905092915050565b6000602082019050818103600083015261225a81611fc7565b9050919050565b6000602082019050818103600083015261227a81611fea565b9050919050565b6000602082019050818103600083015261229a8161200d565b9050919050565b600060208201905081810360008301526122ba81612030565b9050919050565b600060208201905081810360008301526122da81612053565b9050919050565b600060208201905081810360008301526122fa81612076565b9050919050565b6000602082019050818103600083015261231a81612099565b9050919050565b6000602082019050818103600083015261233a816120bc565b9050919050565b6000602082019050818103600083015261235a816120df565b9050919050565b6000602082019050818103600083015261237a81612102565b9050919050565b6000602082019050818103600083015261239a81612125565b9050919050565b600060208201905081810360008301526123ba81612148565b9050919050565b600060208201905081810360008301526123da8161216b565b9050919050565b60006020820190506123f6600083018461218e565b92915050565b6000612406612417565b9050612412828261262d565b919050565b6000604051905090565b600067ffffffffffffffff82111561243c5761243b6126bc565b5b612445826126eb565b9050602081019050919050565b600067ffffffffffffffff82111561246d5761246c6126bc565b5b612476826126eb565b9050602081019050919050565b600081519050919050565b600081519050919050565b600082825260208201905092915050565b600082825260208201905092915050565b60006124c6826125af565b91506124d1836125af565b9250827fffffffffffffffffffffffffffffffffffffffffffffffffffffffffffffffff038211156125065761250561265e565b5b828201905092915050565b600061251c826125af565b9150612527836125af565b92508282101561253a5761253961265e565b5b828203905092915050565b60006125508261258f565b9050919050565b60008115159050919050565b60007fffffffff0000000000000000000000000000000000000000000000000000000082169050919050565b600073ffffffffffffffffffffffffffffffffffffffff82169050919050565b6000819050919050565b82818337600083830152505050565b60005b838110156125e65780820151818401526020810190506125cb565b838111156125f5576000848401525b50505050565b6000600282049050600182168061261357607f821691505b602082108114156126275761262661268d565b5b50919050565b612636826126eb565b810181811067ffffffffffffffff82111715612655576126546126bc565b5b80604052505050565b7f4e487b7100000000000000000000000000000000000000000000000000000000600052601160045260246000fd5b7f4e487b7100000000000000000000000000000000000000000000000000000000600052602260045260246000fd5b7f4e487b7100000000000000000000000000000000000000000000000000000000600052604160045260246000fd5b6000601f19601f8301169050919050565b7f695361693a205472616e73666572732061726520666f7262696464656e000000600082015250565b7f455243373231456e756d657261626c653a206f776e657220696e646578206f7560008201527f74206f6620626f756e6473000000000000000000000000000000000000000000602082015250565b7f4552433732313a207472616e7366657220746f206e6f6e20455243373231526560008201527f63656976657220696d706c656d656e7465720000000000000000000000000000602082015250565b7f4f776e61626c653a206e6577206f776e657220697320746865207a65726f206160008201527f6464726573730000000000000000000000000000000000000000000000000000602082015250565b7f4552433732313a20746f6b656e20616c7265616479206d696e74656400000000600082015250565b7f596f75206861766520616c7265616479206d696e746564000000000000000000600082015250565b7f4552433732313a2061646472657373207a65726f206973206e6f74206120766160008201527f6c6964206f776e65720000000000000000000000000000000000000000000000602082015250565b7f4552433732313a206d696e7420746f20746865207a65726f2061646472657373600082015250565b7f4f776e61626c653a2063616c6c6572206973206e6f7420746865206f776e6572600082015250565b7f4552433732314d657461646174613a2055524920717565727920666f72206e6f60008201527f6e6578697374656e7420746f6b656e0000000000000000000000000000000000602082015250565b7f4552433732313a20696e76616c696420746f6b656e2049440000000000000000600082015250565b7f455243373231456e756d657261626c653a20676c6f62616c20696e646578206f60008201527f7574206f6620626f756e64730000000000000000000000000000000000000000602082015250565b7f455243373231456e756d657261626c653a20636f6e736563757469766520747260008201527f616e7366657273206e6f7420737570706f727465640000000000000000000000602082015250565b612a2481612545565b8114612a2f57600080fd5b50565b612a3b81612557565b8114612a4657600080fd5b50565b612a5281612563565b8114612a5d57600080fd5b50565b612a69816125af565b8114612a7457600080fd5b5056fea264697066735822122050ed0408af0c12334067f19fc88b12640a327592511ebdf0172aa6171cb0f24664736f6c63430008040033",
  "linkReferences": {},
  "deployedLinkReferences": {}
}