{
  "_format": "hh-sol-artifact-1",
  "contractName": "iSai",
  "sourceName": "contracts/iSai.sol",
  "abi": [
    {
      "inputs": [],
      "stateMutability": "nonpayable",
      "type": "constructor"
    },
    {
      "anonymous": false,
      "inputs": [
        {
          "indexed": true,
          "internalType": "address",
          "name": "owner",
          "type": "address"
        },
        {
          "indexed": true,
          "internalType": "address",
          "name": "approved",
          "type": "address"
        },
        {
          "indexed": true,
          "internalType": "uint256",
          "name": "tokenId",
          "type": "uint256"
        }
      ],
      "name": "Approval",
      "type": "event"
    },
    {
      "anonymous": false,
      "inputs": [
        {
          "indexed": true,
          "internalType": "address",
          "name": "owner",
          "type": "address"
        },
        {
          "indexed": true,
          "internalType": "address",
          "name": "operator",
          "type": "address"
        },
        {
          "indexed": false,
          "internalType": "bool",
          "name": "approved",
          "type": "bool"
        }
      ],
      "name": "ApprovalForAll",
      "type": "event"
    },
    {
      "anonymous": false,
      "inputs": [
        {
          "indexed": true,
          "internalType": "address",
          "name": "previousOwner",
          "type": "address"
        },
        {
          "indexed": true,
          "internalType": "address",
          "name": "newOwner",
          "type": "address"
        }
      ],
      "name": "OwnershipTransferred",
      "type": "event"
    },
    {
      "anonymous": false,
      "inputs": [
        {
          "indexed": true,
          "internalType": "address",
          "name": "from",
          "type": "address"
        },
        {
          "indexed": true,
          "internalType": "address",
          "name": "to",
          "type": "address"
        },
        {
          "indexed": true,
          "internalType": "uint256",
          "name": "tokenId",
          "type": "uint256"
        }
      ],
      "name": "Transfer",
      "type": "event"
    },
    {
      "inputs": [
        {
          "internalType": "address",
          "name": "_address",
          "type": "address"
        },
        {
          "internalType": "string",
          "name": "_tokenURI",
          "type": "string"
        }
      ],
      "name": "airdropMint",
      "outputs": [],
      "stateMutability": "nonpayable",
      "type": "function"
    },
    {
      "inputs": [
        {
          "internalType": "address",
          "name": "to",
          "type": "address"
        },
        {
          "internalType": "uint256",
          "name": "tokenId",
          "type": "uint256"
        }
      ],
      "name": "approve",
      "outputs": [],
      "stateMutability": "nonpayable",
      "type": "function"
    },
    {
      "inputs": [
        {
          "internalType": "address",
          "name": "owner",
          "type": "address"
        }
      ],
      "name": "balanceOf",
      "outputs": [
        {
          "internalType": "uint256",
          "name": "",
          "type": "uint256"
        }
      ],
      "stateMutability": "view",
      "type": "function"
    },
    {
      "inputs": [
        {
          "internalType": "uint256",
          "name": "tokenId",
          "type": "uint256"
        }
      ],
      "name": "getApproved",
      "outputs": [
        {
          "internalType": "address",
          "name": "",
          "type": "address"
        }
      ],
      "stateMutability": "view",
      "type": "function"
    },
    {
      "inputs": [
        {
          "internalType": "address",
          "name": "",
          "type": "address"
        }
      ],
      "name": "hasMinted",
      "outputs": [
        {
          "internalType": "bool",
          "name": "",
          "type": "bool"
        }
      ],
      "stateMutability": "view",
      "type": "function"
    },
    {
      "inputs": [
        {
          "internalType": "address",
          "name": "owner",
          "type": "address"
        },
        {
          "internalType": "address",
          "name": "operator",
          "type": "address"
        }
      ],
      "name": "isApprovedForAll",
      "outputs": [
        {
          "internalType": "bool",
          "name": "",
          "type": "bool"
        }
      ],
      "stateMutability": "view",
      "type": "function"
    },
    {
      "inputs": [],
      "name": "name",
      "outputs": [
        {
          "internalType": "string",
          "name": "",
          "type": "string"
        }
      ],
      "stateMutability": "view",
      "type": "function"
    },
    {
      "inputs": [],
      "name": "owner",
      "outputs": [
        {
          "internalType": "address",
          "name": "",
          "type": "address"
        }
      ],
      "stateMutability": "view",
      "type": "function"
    },
    {
      "inputs": [
        {
          "internalType": "uint256",
          "name": "tokenId",
          "type": "uint256"
        }
      ],
      "name": "ownerOf",
      "outputs": [
        {
          "internalType": "address",
          "name": "",
          "type": "address"
        }
      ],
      "stateMutability": "view",
      "type": "function"
    },
    {
      "inputs": [],
      "name": "renounceOwnership",
      "outputs": [],
      "stateMutability": "nonpayable",
      "type": "function"
    },
    {
      "inputs": [
        {
          "internalType": "string",
          "name": "_tokenURI",
          "type": "string"
        }
      ],
      "name": "safeMint",
      "outputs": [],
      "stateMutability": "nonpayable",
      "type": "function"
    },
    {
      "inputs": [
        {
          "internalType": "address",
          "name": "from",
          "type": "address"
        },
        {
          "internalType": "address",
          "name": "to",
          "type": "address"
        },
        {
          "internalType": "uint256",
          "name": "tokenId",
          "type": "uint256"
        }
      ],
      "name": "safeTransferFrom",
      "outputs": [],
      "stateMutability": "nonpayable",
      "type": "function"
    },
    {
      "inputs": [
        {
          "internalType": "address",
          "name": "from",
          "type": "address"
        },
        {
          "internalType": "address",
          "name": "to",
          "type": "address"
        },
        {
          "internalType": "uint256",
          "name": "tokenId",
          "type": "uint256"
        },
        {
          "internalType": "bytes",
          "name": "_data",
          "type": "bytes"
        }
      ],
      "name": "safeTransferFrom",
      "outputs": [],
      "stateMutability": "nonpayable",
      "type": "function"
    },
    {
      "inputs": [
        {
          "internalType": "address",
          "name": "operator",
          "type": "address"
        },
        {
          "internalType": "bool",
          "name": "approved",
          "type": "bool"
        }
      ],
      "name": "setApprovalForAll",
      "outputs": [],
      "stateMutability": "nonpayable",
      "type": "function"
    },
    {
      "inputs": [
        {
          "internalType": "bytes4",
          "name": "interfaceId",
          "type": "bytes4"
        }
      ],
      "name": "supportsInterface",
      "outputs": [
        {
          "internalType": "bool",
          "name": "",
          "type": "bool"
        }
      ],
      "stateMutability": "view",
      "type": "function"
    },
    {
      "inputs": [],
      "name": "symbol",
      "outputs": [
        {
          "internalType": "string",
          "name": "",
          "type": "string"
        }
      ],
      "stateMutability": "view",
      "type": "function"
    },
    {
      "inputs": [
        {
          "internalType": "uint256",
          "name": "index",
          "type": "uint256"
        }
      ],
      "name": "tokenByIndex",
      "outputs": [
        {
          "internalType": "uint256",
          "name": "",
          "type": "uint256"
        }
      ],
      "stateMutability": "view",
      "type": "function"
    },
    {
      "inputs": [
        {
          "internalType": "address",
          "name": "owner",
          "type": "address"
        },
        {
          "internalType": "uint256",
          "name": "index",
          "type": "uint256"
        }
      ],
      "name": "tokenOfOwnerByIndex",
      "outputs": [
        {
          "internalType": "uint256",
          "name": "",
          "type": "uint256"
        }
      ],
      "stateMutability": "view",
      "type": "function"
    },
    {
      "inputs": [
        {
          "internalType": "uint256",
          "name": "_tokenId",
          "type": "uint256"
        }
      ],
      "name": "tokenURI",
      "outputs": [
        {
          "internalType": "string",
          "name": "",
          "type": "string"
        }
      ],
      "stateMutability": "view",
      "type": "function"
    },
    {
      "inputs": [],
      "name": "totalSupply",
      "outputs": [
        {
          "internalType": "uint256",
          "name": "",
          "type": "uint256"
        }
      ],
      "stateMutability": "view",
      "type": "function"
    },
    {
      "inputs": [
        {
          "internalType": "address",
          "name": "from",
          "type": "address"
        },
        {
          "internalType": "address",
          "name": "to",
          "type": "address"
        },
        {
          "internalType": "uint256",
          "name": "tokenId",
          "type": "uint256"
        }
      ],
      "name": "transferFrom",
      "outputs": [],
      "stateMutability": "nonpayable",
      "type": "function"
    },
    {
      "inputs": [
        {
          "internalType": "address",
          "name": "newOwner",
          "type": "address"
        }
      ],
      "name": "transferOwnership",
      "outputs": [],
      "stateMutability": "nonpayable",
      "type": "function"
    }
  ],
  "bytecode": "0x60806040523480156200001157600080fd5b506040518060400160405280600481526020017f69536169000000000000000000000000000000000000000000000000000000008152506040518060400160405280600481526020017f6953616900000000000000000000000000000000000000000000000000000000815250816000908051906020019062000096929190620001a6565b508060019080519060200190620000af929190620001a6565b505050620000d2620000c6620000d860201b60201c565b620000e060201b60201c565b620002bb565b600033905090565b6000600a60009054906101000a900473ffffffffffffffffffffffffffffffffffffffff16905081600a60006101000a81548173ffffffffffffffffffffffffffffffffffffffff021916908373ffffffffffffffffffffffffffffffffffffffff1602179055508173ffffffffffffffffffffffffffffffffffffffff168173ffffffffffffffffffffffffffffffffffffffff167f8be0079c531659141344cd1fd0a4f28419497f9722a3daafe3b4186f6b6457e060405160405180910390a35050565b828054620001b49062000256565b90600052602060002090601f016020900481019282620001d8576000855562000224565b82601f10620001f357805160ff191683800117855562000224565b8280016001018555821562000224579182015b828111156200022357825182559160200191906001019062000206565b5b50905062000233919062000237565b5090565b5b808211156200025257600081600090555060010162000238565b5090565b600060028204905060018216806200026f57607f821691505b602082108114156200028657620002856200028c565b5b50919050565b7f4e487b7100000000000000000000000000000000000000000000000000000000600052602260045260246000fd5b612a6b80620002cb6000396000f3fe608060405234801561001057600080fd5b50600436106101425760003560e01c8063695850fb116100b857806395d89b411161007c57806395d89b4114610387578063a22cb465146103a5578063b88d4fde146103c1578063c87b56dd146103dd578063e985e9c51461040d578063f2fde38b1461043d57610142565b8063695850fb146102f75780636a6385c01461031357806370a082311461032f578063715018a61461035f5780638da5cb5b1461036957610142565b806323b872dd1161010a57806323b872dd146101ff5780632f745c591461021b57806338e21cce1461024b57806342842e0e1461027b5780634f6ccce7146102975780636352211e146102c757610142565b806301ffc9a71461014757806306fdde0314610177578063081812fc14610195578063095ea7b3146101c557806318160ddd146101e1575b600080fd5b610161600480360381019061015c9190611e8f565b610459565b60405161016e9190612218565b60405180910390f35b61017f6104d3565b60405161018c9190612233565b60405180910390f35b6101af60048036038101906101aa9190611f22565b610565565b6040516101bc91906121b1565b60405180910390f35b6101df60048036038101906101da9190611e53565b6105ab565b005b6101e96105e6565b6040516101f691906123f5565b60405180910390f35b61021960048036038101906102149190611cf9565b6105f3565b005b61023560048036038101906102309190611e53565b61062e565b60405161024291906123f5565b60405180910390f35b61026560048036038101906102609190611c94565b6106d3565b6040516102729190612218565b60405180910390f35b61029560048036038101906102909190611cf9565b6106f3565b005b6102b160048036038101906102ac9190611f22565b61072e565b6040516102be91906123f5565b60405180910390f35b6102e160048036038101906102dc9190611f22565b6107c5565b6040516102ee91906121b1565b60405180910390f35b610311600480360381019061030c9190611ee1565b61084c565b005b61032d60048036038101906103289190611dff565b61087c565b005b61034960048036038101906103449190611c94565b610992565b60405161035691906123f5565b60405180910390f35b610367610a4a565b005b610371610a5e565b60405161037e91906121b1565b60405180910390f35b61038f610a88565b60405161039c9190612233565b60405180910390f35b6103bf60048036038101906103ba9190611dc3565b610b1a565b005b6103db60048036038101906103d69190611d48565b610b55565b005b6103f760048036038101906103f29190611f22565b610b90565b6040516104049190612233565b60405180910390f35b61042760048036038101906104229190611cbd565b610cba565b6040516104349190612218565b60405180910390f35b61045760048036038101906104529190611c94565b610d4e565b005b60007f780e9d63000000000000000000000000000000000000000000000000000000007bffffffffffffffffffffffffffffffffffffffffffffffffffffffff1916827bffffffffffffffffffffffffffffffffffffffffffffffffffffffff191614806104cc57506104cb82610dd2565b5b9050919050565b6060600080546104e2906125b9565b80601f016020809104026020016040519081016040528092919081815260200182805461050e906125b9565b801561055b5780601f106105305761010080835404028352916020019161055b565b820191906000526020600020905b81548152906001019060200180831161053e57829003601f168201915b5050505050905090565b600061057082610eb4565b6004600083815260200190815260200160002060009054906101000a900473ffffffffffffffffffffffffffffffffffffffff169050919050565b6040517f08c379a00000000000000000000000000000000000000000000000000000000081526004016105dd90612255565b60405180910390fd5b6000600880549050905090565b6040517f08c379a000000000000000000000000000000000000000000000000000000000815260040161062590612255565b60405180910390fd5b600061063983610992565b821061067a576040517f08c379a000000000000000000000000000000000000000000000000000000000815260040161067190612275565b60405180910390fd5b600660008473ffffffffffffffffffffffffffffffffffffffff1673ffffffffffffffffffffffffffffffffffffffff168152602001908152602001600020600083815260200190815260200160002054905092915050565b600e6020528060005260406000206000915054906101000a900460ff1681565b6040517f08c379a000000000000000000000000000000000000000000000000000000000815260040161072590612255565b60405180910390fd5b60006107386105e6565b8210610779576040517f08c379a0000000000000000000000000000000000000000000000000000000008152600401610770906123b5565b60405180910390fd5b600882815481106107b3577f4e487b7100000000000000000000000000000000000000000000000000000000600052603260045260246000fd5b90600052602060002001549050919050565b6000806107d183610eff565b9050600073ffffffffffffffffffffffffffffffffffffffff168173ffffffffffffffffffffffffffffffffffffffff161415610843576040517f08c379a000000000000000000000000000000000000000000000000000000000815260040161083a90612395565b60405180910390fd5b80915050919050565b6000610858600c610f3c565b9050610864600c610f4a565b61086e3382610f60565b6108788183610f7e565b5050565b600e60003373ffffffffffffffffffffffffffffffffffffffff1673ffffffffffffffffffffffffffffffffffffffff16815260200190815260200160002060009054906101000a900460ff1615610909576040517f08c379a0000000000000000000000000000000000000000000000000000000008152600401610900906122f5565b60405180910390fd5b6001600e60003373ffffffffffffffffffffffffffffffffffffffff1673ffffffffffffffffffffffffffffffffffffffff16815260200190815260200160002060006101000a81548160ff021916908315150217905550600061096d600c610f3c565b9050610979600c610f4a565b6109838382610f60565b61098d8183610f7e565b505050565b60008073ffffffffffffffffffffffffffffffffffffffff168273ffffffffffffffffffffffffffffffffffffffff161415610a03576040517f08c379a00000000000000000000000000000000000000000000000000000000081526004016109fa90612315565b60405180910390fd5b600360008373ffffffffffffffffffffffffffffffffffffffff1673ffffffffffffffffffffffffffffffffffffffff168152602001908152602001600020549050919050565b610a52610faa565b610a5c6000611028565b565b6000600a60009054906101000a900473ffffffffffffffffffffffffffffffffffffffff16905090565b606060018054610a97906125b9565b80601f0160208091040260200160405190810160405280929190818152602001828054610ac3906125b9565b8015610b105780601f10610ae557610100808354040283529160200191610b10565b820191906000526020600020905b815481529060010190602001808311610af357829003601f168201915b5050505050905090565b6040517f08c379a0000000000000000000000000000000000000000000000000000000008152600401610b4c90612255565b60405180910390fd5b6040517f08c379a0000000000000000000000000000000000000000000000000000000008152600401610b8790612255565b60405180910390fd5b6060610b9b826110ee565b610bda576040517f08c379a0000000000000000000000000000000000000000000000000000000008152600401610bd190612375565b60405180910390fd5b6000600d60008481526020019081526020016000208054610bfa906125b9565b905011610c165760405180602001604052806000815250610cb3565b600d60008381526020019081526020016000208054610c34906125b9565b80601f0160208091040260200160405190810160405280929190818152602001828054610c60906125b9565b8015610cad5780601f10610c8257610100808354040283529160200191610cad565b820191906000526020600020905b815481529060010190602001808311610c9057829003601f168201915b50505050505b9050919050565b6000600560008473ffffffffffffffffffffffffffffffffffffffff1673ffffffffffffffffffffffffffffffffffffffff16815260200190815260200160002060008373ffffffffffffffffffffffffffffffffffffffff1673ffffffffffffffffffffffffffffffffffffffff16815260200190815260200160002060009054906101000a900460ff16905092915050565b610d56610faa565b600073ffffffffffffffffffffffffffffffffffffffff168173ffffffffffffffffffffffffffffffffffffffff161415610dc6576040517f08c379a0000000000000000000000000000000000000000000000000000000008152600401610dbd906122b5565b60405180910390fd5b610dcf81611028565b50565b60007f80ac58cd000000000000000000000000000000000000000000000000000000007bffffffffffffffffffffffffffffffffffffffffffffffffffffffff1916827bffffffffffffffffffffffffffffffffffffffffffffffffffffffff19161480610e9d57507f5b5e139f000000000000000000000000000000000000000000000000000000007bffffffffffffffffffffffffffffffffffffffffffffffffffffffff1916827bffffffffffffffffffffffffffffffffffffffffffffffffffffffff1916145b80610ead5750610eac8261112f565b5b9050919050565b610ebd816110ee565b610efc576040517f08c379a0000000000000000000000000000000000000000000000000000000008152600401610ef390612395565b60405180910390fd5b50565b60006002600083815260200190815260200160002060009054906101000a900473ffffffffffffffffffffffffffffffffffffffff169050919050565b600081600001549050919050565b6001816000016000828254019250508190555050565b610f7a828260405180602001604052806000815250611199565b5050565b80600d60008481526020019081526020016000209080519060200190610fa5929190611ab8565b505050565b610fb26111f4565b73ffffffffffffffffffffffffffffffffffffffff16610fd0610a5e565b73ffffffffffffffffffffffffffffffffffffffff1614611026576040517f08c379a000000000000000000000000000000000000000000000000000000000815260040161101d90612355565b60405180910390fd5b565b6000600a60009054906101000a900473ffffffffffffffffffffffffffffffffffffffff16905081600a60006101000a81548173ffffffffffffffffffffffffffffffffffffffff021916908373ffffffffffffffffffffffffffffffffffffffff1602179055508173ffffffffffffffffffffffffffffffffffffffff168173ffffffffffffffffffffffffffffffffffffffff167f8be0079c531659141344cd1fd0a4f28419497f9722a3daafe3b4186f6b6457e060405160405180910390a35050565b60008073ffffffffffffffffffffffffffffffffffffffff1661111083610eff565b73ffffffffffffffffffffffffffffffffffffffff1614159050919050565b60007f01ffc9a7000000000000000000000000000000000000000000000000000000007bffffffffffffffffffffffffffffffffffffffffffffffffffffffff1916827bffffffffffffffffffffffffffffffffffffffffffffffffffffffff1916149050919050565b6111a383836111fc565b6111b0600084848461141a565b6111ef576040517f08c379a00000000000000000000000000000000000000000000000000000000081526004016111e690612295565b60405180910390fd5b505050565b600033905090565b600073ffffffffffffffffffffffffffffffffffffffff168273ffffffffffffffffffffffffffffffffffffffff16141561126c576040517f08c379a000000000000000000000000000000000000000000000000000000000815260040161126390612335565b60405180910390fd5b611275816110ee565b156112b5576040517f08c379a00000000000000000000000000000000000000000000000000000000081526004016112ac906122d5565b60405180910390fd5b6112c36000838360016115b1565b6112cc816110ee565b1561130c576040517f08c379a0000000000000000000000000000000000000000000000000000000008152600401611303906122d5565b60405180910390fd5b6001600360008473ffffffffffffffffffffffffffffffffffffffff1673ffffffffffffffffffffffffffffffffffffffff16815260200190815260200160002060008282540192505081905550816002600083815260200190815260200160002060006101000a81548173ffffffffffffffffffffffffffffffffffffffff021916908373ffffffffffffffffffffffffffffffffffffffff160217905550808273ffffffffffffffffffffffffffffffffffffffff16600073ffffffffffffffffffffffffffffffffffffffff167fddf252ad1be2c89b69c2b068fc378daa952ba7f163c4a11628f55a4df523b3ef60405160405180910390a4611416600083836001611711565b5050565b600061143b8473ffffffffffffffffffffffffffffffffffffffff16611717565b156115a4578373ffffffffffffffffffffffffffffffffffffffff1663150b7a026114646111f4565b8786866040518563ffffffff1660e01b815260040161148694939291906121cc565b602060405180830381600087803b1580156114a057600080fd5b505af19250505080156114d157506040513d601f19601f820116820180604052508101906114ce9190611eb8565b60015b611554573d8060008114611501576040519150601f19603f3d011682016040523d82523d6000602084013e611506565b606091505b5060008151141561154c576040517f08c379a000000000000000000000000000000000000000000000000000000000815260040161154390612295565b60405180910390fd5b805181602001fd5b63150b7a0260e01b7bffffffffffffffffffffffffffffffffffffffffffffffffffffffff1916817bffffffffffffffffffffffffffffffffffffffffffffffffffffffff1916149150506115a9565b600190505b949350505050565b6115bd8484848461173a565b6001811115611601576040517f08c379a00000000000000000000000000000000000000000000000000000000081526004016115f8906123d5565b60405180910390fd5b6000829050600073ffffffffffffffffffffffffffffffffffffffff168573ffffffffffffffffffffffffffffffffffffffff1614156116495761164481611740565b611688565b8373ffffffffffffffffffffffffffffffffffffffff168573ffffffffffffffffffffffffffffffffffffffff1614611687576116868582611789565b5b5b600073ffffffffffffffffffffffffffffffffffffffff168473ffffffffffffffffffffffffffffffffffffffff1614156116cb576116c6816118f6565b61170a565b8473ffffffffffffffffffffffffffffffffffffffff168473ffffffffffffffffffffffffffffffffffffffff1614611709576117088482611a39565b5b5b5050505050565b50505050565b6000808273ffffffffffffffffffffffffffffffffffffffff163b119050919050565b50505050565b6008805490506009600083815260200190815260200160002081905550600881908060018154018082558091505060019003906000526020600020016000909190919091505550565b6000600161179684610992565b6117a091906124cf565b9050600060076000848152602001908152602001600020549050818114611885576000600660008673ffffffffffffffffffffffffffffffffffffffff1673ffffffffffffffffffffffffffffffffffffffff168152602001908152602001600020600084815260200190815260200160002054905080600660008773ffffffffffffffffffffffffffffffffffffffff1673ffffffffffffffffffffffffffffffffffffffff168152602001908152602001600020600084815260200190815260200160002081905550816007600083815260200190815260200160002081905550505b6007600084815260200190815260200160002060009055600660008573ffffffffffffffffffffffffffffffffffffffff1673ffffffffffffffffffffffffffffffffffffffff16815260200190815260200160002060008381526020019081526020016000206000905550505050565b6000600160088054905061190a91906124cf565b9050600060096000848152602001908152602001600020549050600060088381548110611960577f4e487b7100000000000000000000000000000000000000000000000000000000600052603260045260246000fd5b9060005260206000200154905080600883815481106119a8577f4e487b7100000000000000000000000000000000000000000000000000000000600052603260045260246000fd5b906000526020600020018190555081600960008381526020019081526020016000208190555060096000858152602001908152602001600020600090556008805480611a1d577f4e487b7100000000000000000000000000000000000000000000000000000000600052603160045260246000fd5b6001900381819060005260206000200160009055905550505050565b6000611a4483610992565b905081600660008573ffffffffffffffffffffffffffffffffffffffff1673ffffffffffffffffffffffffffffffffffffffff168152602001908152602001600020600083815260200190815260200160002081905550806007600084815260200190815260200160002081905550505050565b828054611ac4906125b9565b90600052602060002090601f016020900481019282611ae65760008555611b2d565b82601f10611aff57805160ff1916838001178555611b2d565b82800160010185558215611b2d579182015b82811115611b2c578251825591602001919060010190611b11565b5b509050611b3a9190611b3e565b5090565b5b80821115611b57576000816000905550600101611b3f565b5090565b6000611b6e611b6984612435565b612410565b905082815260208101848484011115611b8657600080fd5b611b91848285612577565b509392505050565b6000611bac611ba784612466565b612410565b905082815260208101848484011115611bc457600080fd5b611bcf848285612577565b509392505050565b600081359050611be6816129d9565b92915050565b600081359050611bfb816129f0565b92915050565b600081359050611c1081612a07565b92915050565b600081519050611c2581612a07565b92915050565b600082601f830112611c3c57600080fd5b8135611c4c848260208601611b5b565b91505092915050565b600082601f830112611c6657600080fd5b8135611c76848260208601611b99565b91505092915050565b600081359050611c8e81612a1e565b92915050565b600060208284031215611ca657600080fd5b6000611cb484828501611bd7565b91505092915050565b60008060408385031215611cd057600080fd5b6000611cde85828601611bd7565b9250506020611cef85828601611bd7565b9150509250929050565b600080600060608486031215611d0e57600080fd5b6000611d1c86828701611bd7565b9350506020611d2d86828701611bd7565b9250506040611d3e86828701611c7f565b9150509250925092565b60008060008060808587031215611d5e57600080fd5b6000611d6c87828801611bd7565b9450506020611d7d87828801611bd7565b9350506040611d8e87828801611c7f565b925050606085013567ffffffffffffffff811115611dab57600080fd5b611db787828801611c2b565b91505092959194509250565b60008060408385031215611dd657600080fd5b6000611de485828601611bd7565b9250506020611df585828601611bec565b9150509250929050565b60008060408385031215611e1257600080fd5b6000611e2085828601611bd7565b925050602083013567ffffffffffffffff811115611e3d57600080fd5b611e4985828601611c55565b9150509250929050565b60008060408385031215611e6657600080fd5b6000611e7485828601611bd7565b9250506020611e8585828601611c7f565b9150509250929050565b600060208284031215611ea157600080fd5b6000611eaf84828501611c01565b91505092915050565b600060208284031215611eca57600080fd5b6000611ed884828501611c16565b91505092915050565b600060208284031215611ef357600080fd5b600082013567ffffffffffffffff811115611f0d57600080fd5b611f1984828501611c55565b91505092915050565b600060208284031215611f3457600080fd5b6000611f4284828501611c7f565b91505092915050565b611f5481612503565b82525050565b611f6381612515565b82525050565b6000611f7482612497565b611f7e81856124ad565b9350611f8e818560208601612586565b611f97816126a9565b840191505092915050565b6000611fad826124a2565b611fb781856124be565b9350611fc7818560208601612586565b611fd0816126a9565b840191505092915050565b6000611fe8601d836124be565b9150611ff3826126ba565b602082019050919050565b600061200b602b836124be565b9150612016826126e3565b604082019050919050565b600061202e6032836124be565b915061203982612732565b604082019050919050565b60006120516026836124be565b915061205c82612781565b604082019050919050565b6000612074601c836124be565b915061207f826127d0565b602082019050919050565b60006120976017836124be565b91506120a2826127f9565b602082019050919050565b60006120ba6029836124be565b91506120c582612822565b604082019050919050565b60006120dd6020836124be565b91506120e882612871565b602082019050919050565b60006121006020836124be565b915061210b8261289a565b602082019050919050565b6000612123602f836124be565b915061212e826128c3565b604082019050919050565b60006121466018836124be565b915061215182612912565b602082019050919050565b6000612169602c836124be565b91506121748261293b565b604082019050919050565b600061218c6035836124be565b91506121978261298a565b604082019050919050565b6121ab8161256d565b82525050565b60006020820190506121c66000830184611f4b565b92915050565b60006080820190506121e16000830187611f4b565b6121ee6020830186611f4b565b6121fb60408301856121a2565b818103606083015261220d8184611f69565b905095945050505050565b600060208201905061222d6000830184611f5a565b92915050565b6000602082019050818103600083015261224d8184611fa2565b905092915050565b6000602082019050818103600083015261226e81611fdb565b9050919050565b6000602082019050818103600083015261228e81611ffe565b9050919050565b600060208201905081810360008301526122ae81612021565b9050919050565b600060208201905081810360008301526122ce81612044565b9050919050565b600060208201905081810360008301526122ee81612067565b9050919050565b6000602082019050818103600083015261230e8161208a565b9050919050565b6000602082019050818103600083015261232e816120ad565b9050919050565b6000602082019050818103600083015261234e816120d0565b9050919050565b6000602082019050818103600083015261236e816120f3565b9050919050565b6000602082019050818103600083015261238e81612116565b9050919050565b600060208201905081810360008301526123ae81612139565b9050919050565b600060208201905081810360008301526123ce8161215c565b9050919050565b600060208201905081810360008301526123ee8161217f565b9050919050565b600060208201905061240a60008301846121a2565b92915050565b600061241a61242b565b905061242682826125eb565b919050565b6000604051905090565b600067ffffffffffffffff8211156124505761244f61267a565b5b612459826126a9565b9050602081019050919050565b600067ffffffffffffffff8211156124815761248061267a565b5b61248a826126a9565b9050602081019050919050565b600081519050919050565b600081519050919050565b600082825260208201905092915050565b600082825260208201905092915050565b60006124da8261256d565b91506124e58361256d565b9250828210156124f8576124f761261c565b5b828203905092915050565b600061250e8261254d565b9050919050565b60008115159050919050565b60007fffffffff0000000000000000000000000000000000000000000000000000000082169050919050565b600073ffffffffffffffffffffffffffffffffffffffff82169050919050565b6000819050919050565b82818337600083830152505050565b60005b838110156125a4578082015181840152602081019050612589565b838111156125b3576000848401525b50505050565b600060028204905060018216806125d157607f821691505b602082108114156125e5576125e461264b565b5b50919050565b6125f4826126a9565b810181811067ffffffffffffffff821117156126135761261261267a565b5b80604052505050565b7f4e487b7100000000000000000000000000000000000000000000000000000000600052601160045260246000fd5b7f4e487b7100000000000000000000000000000000000000000000000000000000600052602260045260246000fd5b7f4e487b7100000000000000000000000000000000000000000000000000000000600052604160045260246000fd5b6000601f19601f8301169050919050565b7f695361693a205472616e73666572732061726520666f7262696464656e000000600082015250565b7f455243373231456e756d657261626c653a206f776e657220696e646578206f7560008201527f74206f6620626f756e6473000000000000000000000000000000000000000000602082015250565b7f4552433732313a207472616e7366657220746f206e6f6e20455243373231526560008201527f63656976657220696d706c656d656e7465720000000000000000000000000000602082015250565b7f4f776e61626c653a206e6577206f776e657220697320746865207a65726f206160008201527f6464726573730000000000000000000000000000000000000000000000000000602082015250565b7f4552433732313a20746f6b656e20616c7265616479206d696e74656400000000600082015250565b7f596f75206861766520616c7265616479206d696e746564000000000000000000600082015250565b7f4552433732313a2061646472657373207a65726f206973206e6f74206120766160008201527f6c6964206f776e65720000000000000000000000000000000000000000000000602082015250565b7f4552433732313a206d696e7420746f20746865207a65726f2061646472657373600082015250565b7f4f776e61626c653a2063616c6c6572206973206e6f7420746865206f776e6572600082015250565b7f4552433732314d657461646174613a2055524920717565727920666f72206e6f60008201527f6e6578697374656e7420746f6b656e0000000000000000000000000000000000602082015250565b7f4552433732313a20696e76616c696420746f6b656e2049440000000000000000600082015250565b7f455243373231456e756d657261626c653a20676c6f62616c20696e646578206f60008201527f7574206f6620626f756e64730000000000000000000000000000000000000000602082015250565b7f455243373231456e756d657261626c653a20636f6e736563757469766520747260008201527f616e7366657273206e6f7420737570706f727465640000000000000000000000602082015250565b6129e281612503565b81146129ed57600080fd5b50565b6129f981612515565b8114612a0457600080fd5b50565b612a1081612521565b8114612a1b57600080fd5b50565b612a278161256d565b8114612a3257600080fd5b5056fea2646970667358221220baebccd9410c9b455b19f6dae3867afa948514abb1e0bb4bf908ddd52a39cf7f64736f6c63430008040033",
  "linkReferences": {},
  "deployedLinkReferences": {}
}