{
  "_format": "hh-sol-artifact-1",
  "contractName": "iSai",
  "sourceName": "contracts/iSai.sol",
  "abi": [
    {
      "inputs": [],
      "stateMutability": "nonpayable",
      "type": "constructor"
    },
    {
      "anonymous": false,
      "inputs": [
        {
          "indexed": true,
          "internalType": "address",
          "name": "owner",
          "type": "address"
        },
        {
          "indexed": true,
          "internalType": "address",
          "name": "approved",
          "type": "address"
        },
        {
          "indexed": true,
          "internalType": "uint256",
          "name": "tokenId",
          "type": "uint256"
        }
      ],
      "name": "Approval",
      "type": "event"
    },
    {
      "anonymous": false,
      "inputs": [
        {
          "indexed": true,
          "internalType": "address",
          "name": "owner",
          "type": "address"
        },
        {
          "indexed": true,
          "internalType": "address",
          "name": "operator",
          "type": "address"
        },
        {
          "indexed": false,
          "internalType": "bool",
          "name": "approved",
          "type": "bool"
        }
      ],
      "name": "ApprovalForAll",
      "type": "event"
    },
    {
      "anonymous": false,
      "inputs": [
        {
          "indexed": true,
          "internalType": "address",
          "name": "previousOwner",
          "type": "address"
        },
        {
          "indexed": true,
          "internalType": "address",
          "name": "newOwner",
          "type": "address"
        }
      ],
      "name": "OwnershipTransferred",
      "type": "event"
    },
    {
      "anonymous": false,
      "inputs": [
        {
          "indexed": true,
          "internalType": "address",
          "name": "from",
          "type": "address"
        },
        {
          "indexed": true,
          "internalType": "address",
          "name": "to",
          "type": "address"
        },
        {
          "indexed": true,
          "internalType": "uint256",
          "name": "tokenId",
          "type": "uint256"
        }
      ],
      "name": "Transfer",
      "type": "event"
    },
    {
      "inputs": [
        {
          "internalType": "address",
          "name": "to",
          "type": "address"
        },
        {
          "internalType": "uint256",
          "name": "tokenId",
          "type": "uint256"
        }
      ],
      "name": "approve",
      "outputs": [],
      "stateMutability": "nonpayable",
      "type": "function"
    },
    {
      "inputs": [
        {
          "internalType": "address",
          "name": "owner",
          "type": "address"
        }
      ],
      "name": "balanceOf",
      "outputs": [
        {
          "internalType": "uint256",
          "name": "",
          "type": "uint256"
        }
      ],
      "stateMutability": "view",
      "type": "function"
    },
    {
      "inputs": [
        {
          "internalType": "uint256",
          "name": "tokenId",
          "type": "uint256"
        }
      ],
      "name": "getApproved",
      "outputs": [
        {
          "internalType": "address",
          "name": "",
          "type": "address"
        }
      ],
      "stateMutability": "view",
      "type": "function"
    },
    {
      "inputs": [
        {
          "internalType": "address",
          "name": "",
          "type": "address"
        }
      ],
      "name": "hasMinted",
      "outputs": [
        {
          "internalType": "uint256",
          "name": "",
          "type": "uint256"
        }
      ],
      "stateMutability": "view",
      "type": "function"
    },
    {
      "inputs": [
        {
          "internalType": "address",
          "name": "owner",
          "type": "address"
        },
        {
          "internalType": "address",
          "name": "operator",
          "type": "address"
        }
      ],
      "name": "isApprovedForAll",
      "outputs": [
        {
          "internalType": "bool",
          "name": "",
          "type": "bool"
        }
      ],
      "stateMutability": "view",
      "type": "function"
    },
    {
      "inputs": [
        {
          "internalType": "string",
          "name": "_tokenURI",
          "type": "string"
        }
      ],
      "name": "mintNFT",
      "outputs": [],
      "stateMutability": "nonpayable",
      "type": "function"
    },
    {
      "inputs": [],
      "name": "name",
      "outputs": [
        {
          "internalType": "string",
          "name": "",
          "type": "string"
        }
      ],
      "stateMutability": "view",
      "type": "function"
    },
    {
      "inputs": [],
      "name": "owner",
      "outputs": [
        {
          "internalType": "address",
          "name": "",
          "type": "address"
        }
      ],
      "stateMutability": "view",
      "type": "function"
    },
    {
      "inputs": [
        {
          "internalType": "uint256",
          "name": "tokenId",
          "type": "uint256"
        }
      ],
      "name": "ownerOf",
      "outputs": [
        {
          "internalType": "address",
          "name": "",
          "type": "address"
        }
      ],
      "stateMutability": "view",
      "type": "function"
    },
    {
      "inputs": [],
      "name": "renounceOwnership",
      "outputs": [],
      "stateMutability": "nonpayable",
      "type": "function"
    },
    {
      "inputs": [
        {
          "internalType": "address",
          "name": "from",
          "type": "address"
        },
        {
          "internalType": "address",
          "name": "to",
          "type": "address"
        },
        {
          "internalType": "uint256",
          "name": "tokenId",
          "type": "uint256"
        }
      ],
      "name": "safeTransferFrom",
      "outputs": [],
      "stateMutability": "nonpayable",
      "type": "function"
    },
    {
      "inputs": [
        {
          "internalType": "address",
          "name": "from",
          "type": "address"
        },
        {
          "internalType": "address",
          "name": "to",
          "type": "address"
        },
        {
          "internalType": "uint256",
          "name": "tokenId",
          "type": "uint256"
        },
        {
          "internalType": "bytes",
          "name": "_data",
          "type": "bytes"
        }
      ],
      "name": "safeTransferFrom",
      "outputs": [],
      "stateMutability": "nonpayable",
      "type": "function"
    },
    {
      "inputs": [
        {
          "internalType": "address",
          "name": "operator",
          "type": "address"
        },
        {
          "internalType": "bool",
          "name": "approved",
          "type": "bool"
        }
      ],
      "name": "setApprovalForAll",
      "outputs": [],
      "stateMutability": "nonpayable",
      "type": "function"
    },
    {
      "inputs": [
        {
          "internalType": "bytes4",
          "name": "interfaceId",
          "type": "bytes4"
        }
      ],
      "name": "supportsInterface",
      "outputs": [
        {
          "internalType": "bool",
          "name": "",
          "type": "bool"
        }
      ],
      "stateMutability": "view",
      "type": "function"
    },
    {
      "inputs": [],
      "name": "symbol",
      "outputs": [
        {
          "internalType": "string",
          "name": "",
          "type": "string"
        }
      ],
      "stateMutability": "view",
      "type": "function"
    },
    {
      "inputs": [
        {
          "internalType": "uint256",
          "name": "index",
          "type": "uint256"
        }
      ],
      "name": "tokenByIndex",
      "outputs": [
        {
          "internalType": "uint256",
          "name": "",
          "type": "uint256"
        }
      ],
      "stateMutability": "view",
      "type": "function"
    },
    {
      "inputs": [
        {
          "internalType": "address",
          "name": "owner",
          "type": "address"
        },
        {
          "internalType": "uint256",
          "name": "index",
          "type": "uint256"
        }
      ],
      "name": "tokenOfOwnerByIndex",
      "outputs": [
        {
          "internalType": "uint256",
          "name": "",
          "type": "uint256"
        }
      ],
      "stateMutability": "view",
      "type": "function"
    },
    {
      "inputs": [
        {
          "internalType": "uint256",
          "name": "_tokenId",
          "type": "uint256"
        }
      ],
      "name": "tokenURI",
      "outputs": [
        {
          "internalType": "string",
          "name": "",
          "type": "string"
        }
      ],
      "stateMutability": "view",
      "type": "function"
    },
    {
      "inputs": [],
      "name": "totalSupply",
      "outputs": [
        {
          "internalType": "uint256",
          "name": "",
          "type": "uint256"
        }
      ],
      "stateMutability": "view",
      "type": "function"
    },
    {
      "inputs": [
        {
          "internalType": "address",
          "name": "from",
          "type": "address"
        },
        {
          "internalType": "address",
          "name": "to",
          "type": "address"
        },
        {
          "internalType": "uint256",
          "name": "tokenId",
          "type": "uint256"
        }
      ],
      "name": "transferFrom",
      "outputs": [],
      "stateMutability": "nonpayable",
      "type": "function"
    },
    {
      "inputs": [
        {
          "internalType": "address",
          "name": "newOwner",
          "type": "address"
        }
      ],
      "name": "transferOwnership",
      "outputs": [],
      "stateMutability": "nonpayable",
      "type": "function"
    }
  ],
  "bytecode": "0x60806040523480156200001157600080fd5b506040518060400160405280600481526020017f69536169000000000000000000000000000000000000000000000000000000008152506040518060400160405280600481526020017f6953616900000000000000000000000000000000000000000000000000000000815250816000908051906020019062000096929190620001a6565b508060019080519060200190620000af929190620001a6565b505050620000d2620000c6620000d860201b60201c565b620000e060201b60201c565b620002bb565b600033905090565b6000600a60009054906101000a900473ffffffffffffffffffffffffffffffffffffffff16905081600a60006101000a81548173ffffffffffffffffffffffffffffffffffffffff021916908373ffffffffffffffffffffffffffffffffffffffff1602179055508173ffffffffffffffffffffffffffffffffffffffff168173ffffffffffffffffffffffffffffffffffffffff167f8be0079c531659141344cd1fd0a4f28419497f9722a3daafe3b4186f6b6457e060405160405180910390a35050565b828054620001b49062000256565b90600052602060002090601f016020900481019282620001d8576000855562000224565b82601f10620001f357805160ff191683800117855562000224565b8280016001018555821562000224579182015b828111156200022357825182559160200191906001019062000206565b5b50905062000233919062000237565b5090565b5b808211156200025257600081600090555060010162000238565b5090565b600060028204905060018216806200026f57607f821691505b602082108114156200028657620002856200028c565b5b50919050565b7f4e487b7100000000000000000000000000000000000000000000000000000000600052602260045260246000fd5b612a0180620002cb6000396000f3fe608060405234801561001057600080fd5b50600436106101375760003560e01c80636352211e116100b8578063a22cb4651161007c578063a22cb46514610362578063b88d4fde1461037e578063c87b56dd1461039a578063e985e9c5146103ca578063f2fde38b146103fa578063fb37e8831461041657610137565b80636352211e146102bc57806370a08231146102ec578063715018a61461031c5780638da5cb5b1461032657806395d89b411461034457610137565b806323b872dd116100ff57806323b872dd146101f45780632f745c591461021057806338e21cce1461024057806342842e0e146102705780634f6ccce71461028c57610137565b806301ffc9a71461013c57806306fdde031461016c578063081812fc1461018a578063095ea7b3146101ba57806318160ddd146101d6575b600080fd5b61015660048036038101906101519190611dcf565b610432565b6040516101639190612158565b60405180910390f35b6101746104ac565b6040516101819190612173565b60405180910390f35b6101a4600480360381019061019f9190611e62565b61053e565b6040516101b191906120f1565b60405180910390f35b6101d460048036038101906101cf9190611d93565b610584565b005b6101de6105bf565b6040516101eb9190612335565b60405180910390f35b61020e60048036038101906102099190611c8d565b6105cc565b005b61022a60048036038101906102259190611d93565b610607565b6040516102379190612335565b60405180910390f35b61025a60048036038101906102559190611c28565b6106ac565b6040516102679190612335565b60405180910390f35b61028a60048036038101906102859190611c8d565b6106c4565b005b6102a660048036038101906102a19190611e62565b6106ff565b6040516102b39190612335565b60405180910390f35b6102d660048036038101906102d19190611e62565b610796565b6040516102e391906120f1565b60405180910390f35b61030660048036038101906103019190611c28565b61081d565b6040516103139190612335565b60405180910390f35b6103246108d5565b005b61032e6108e9565b60405161033b91906120f1565b60405180910390f35b61034c610913565b6040516103599190612173565b60405180910390f35b61037c60048036038101906103779190611d57565b6109a5565b005b61039860048036038101906103939190611cdc565b6109e0565b005b6103b460048036038101906103af9190611e62565b610a1b565b6040516103c19190612173565b60405180910390f35b6103e460048036038101906103df9190611c51565b610b45565b6040516103f19190612158565b60405180910390f35b610414600480360381019061040f9190611c28565b610bd9565b005b610430600480360381019061042b9190611e21565b610c5d565b005b60007f780e9d63000000000000000000000000000000000000000000000000000000007bffffffffffffffffffffffffffffffffffffffffffffffffffffffff1916827bffffffffffffffffffffffffffffffffffffffffffffffffffffffff191614806104a557506104a482610d66565b5b9050919050565b6060600080546104bb9061254f565b80601f01602080910402602001604051908101604052809291908181526020018280546104e79061254f565b80156105345780601f1061050957610100808354040283529160200191610534565b820191906000526020600020905b81548152906001019060200180831161051757829003601f168201915b5050505050905090565b600061054982610e48565b6004600083815260200190815260200160002060009054906101000a900473ffffffffffffffffffffffffffffffffffffffff169050919050565b6040517f08c379a00000000000000000000000000000000000000000000000000000000081526004016105b690612195565b60405180910390fd5b6000600880549050905090565b6040517f08c379a00000000000000000000000000000000000000000000000000000000081526004016105fe90612195565b60405180910390fd5b60006106128361081d565b8210610653576040517f08c379a000000000000000000000000000000000000000000000000000000000815260040161064a906121b5565b60405180910390fd5b600660008473ffffffffffffffffffffffffffffffffffffffff1673ffffffffffffffffffffffffffffffffffffffff168152602001908152602001600020600083815260200190815260200160002054905092915050565b600e6020528060005260406000206000915090505481565b6040517f08c379a00000000000000000000000000000000000000000000000000000000081526004016106f690612195565b60405180910390fd5b60006107096105bf565b821061074a576040517f08c379a0000000000000000000000000000000000000000000000000000000008152600401610741906122f5565b60405180910390fd5b60088281548110610784577f4e487b7100000000000000000000000000000000000000000000000000000000600052603260045260246000fd5b90600052602060002001549050919050565b6000806107a283610e93565b9050600073ffffffffffffffffffffffffffffffffffffffff168173ffffffffffffffffffffffffffffffffffffffff161415610814576040517f08c379a000000000000000000000000000000000000000000000000000000000815260040161080b906122d5565b60405180910390fd5b80915050919050565b60008073ffffffffffffffffffffffffffffffffffffffff168273ffffffffffffffffffffffffffffffffffffffff16141561088e576040517f08c379a000000000000000000000000000000000000000000000000000000000815260040161088590612235565b60405180910390fd5b600360008373ffffffffffffffffffffffffffffffffffffffff1673ffffffffffffffffffffffffffffffffffffffff168152602001908152602001600020549050919050565b6108dd610ed0565b6108e76000610f4e565b565b6000600a60009054906101000a900473ffffffffffffffffffffffffffffffffffffffff16905090565b6060600180546109229061254f565b80601f016020809104026020016040519081016040528092919081815260200182805461094e9061254f565b801561099b5780601f106109705761010080835404028352916020019161099b565b820191906000526020600020905b81548152906001019060200180831161097e57829003601f168201915b5050505050905090565b6040517f08c379a00000000000000000000000000000000000000000000000000000000081526004016109d790612195565b60405180910390fd5b6040517f08c379a0000000000000000000000000000000000000000000000000000000008152600401610a1290612195565b60405180910390fd5b6060610a2682611014565b610a65576040517f08c379a0000000000000000000000000000000000000000000000000000000008152600401610a5c906122b5565b60405180910390fd5b6000600d60008481526020019081526020016000208054610a859061254f565b905011610aa15760405180602001604052806000815250610b3e565b600d60008381526020019081526020016000208054610abf9061254f565b80601f0160208091040260200160405190810160405280929190818152602001828054610aeb9061254f565b8015610b385780601f10610b0d57610100808354040283529160200191610b38565b820191906000526020600020905b815481529060010190602001808311610b1b57829003601f168201915b50505050505b9050919050565b6000600560008473ffffffffffffffffffffffffffffffffffffffff1673ffffffffffffffffffffffffffffffffffffffff16815260200190815260200160002060008373ffffffffffffffffffffffffffffffffffffffff1673ffffffffffffffffffffffffffffffffffffffff16815260200190815260200160002060009054906101000a900460ff16905092915050565b610be1610ed0565b600073ffffffffffffffffffffffffffffffffffffffff168173ffffffffffffffffffffffffffffffffffffffff161415610c51576040517f08c379a0000000000000000000000000000000000000000000000000000000008152600401610c48906121f5565b60405180910390fd5b610c5a81610f4e565b50565b6003600e60003373ffffffffffffffffffffffffffffffffffffffff1673ffffffffffffffffffffffffffffffffffffffff1681526020019081526020016000205410610cdf576040517f08c379a0000000000000000000000000000000000000000000000000000000008152600401610cd690612275565b60405180910390fd5b6001600e60003373ffffffffffffffffffffffffffffffffffffffff1673ffffffffffffffffffffffffffffffffffffffff1681526020019081526020016000206000828254610d2f919061240f565b925050819055506000610d42600c611055565b9050610d4e600c611063565b610d583382611079565b610d628183611097565b5050565b60007f80ac58cd000000000000000000000000000000000000000000000000000000007bffffffffffffffffffffffffffffffffffffffffffffffffffffffff1916827bffffffffffffffffffffffffffffffffffffffffffffffffffffffff19161480610e3157507f5b5e139f000000000000000000000000000000000000000000000000000000007bffffffffffffffffffffffffffffffffffffffffffffffffffffffff1916827bffffffffffffffffffffffffffffffffffffffffffffffffffffffff1916145b80610e415750610e40826110c3565b5b9050919050565b610e5181611014565b610e90576040517f08c379a0000000000000000000000000000000000000000000000000000000008152600401610e87906122d5565b60405180910390fd5b50565b60006002600083815260200190815260200160002060009054906101000a900473ffffffffffffffffffffffffffffffffffffffff169050919050565b610ed861112d565b73ffffffffffffffffffffffffffffffffffffffff16610ef66108e9565b73ffffffffffffffffffffffffffffffffffffffff1614610f4c576040517f08c379a0000000000000000000000000000000000000000000000000000000008152600401610f4390612295565b60405180910390fd5b565b6000600a60009054906101000a900473ffffffffffffffffffffffffffffffffffffffff16905081600a60006101000a81548173ffffffffffffffffffffffffffffffffffffffff021916908373ffffffffffffffffffffffffffffffffffffffff1602179055508173ffffffffffffffffffffffffffffffffffffffff168173ffffffffffffffffffffffffffffffffffffffff167f8be0079c531659141344cd1fd0a4f28419497f9722a3daafe3b4186f6b6457e060405160405180910390a35050565b60008073ffffffffffffffffffffffffffffffffffffffff1661103683610e93565b73ffffffffffffffffffffffffffffffffffffffff1614159050919050565b600081600001549050919050565b6001816000016000828254019250508190555050565b611093828260405180602001604052806000815250611135565b5050565b80600d600084815260200190815260200160002090805190602001906110be929190611a4c565b505050565b60007f01ffc9a7000000000000000000000000000000000000000000000000000000007bffffffffffffffffffffffffffffffffffffffffffffffffffffffff1916827bffffffffffffffffffffffffffffffffffffffffffffffffffffffff1916149050919050565b600033905090565b61113f8383611190565b61114c60008484846113ae565b61118b576040517f08c379a0000000000000000000000000000000000000000000000000000000008152600401611182906121d5565b60405180910390fd5b505050565b600073ffffffffffffffffffffffffffffffffffffffff168273ffffffffffffffffffffffffffffffffffffffff161415611200576040517f08c379a00000000000000000000000000000000000000000000000000000000081526004016111f790612255565b60405180910390fd5b61120981611014565b15611249576040517f08c379a000000000000000000000000000000000000000000000000000000000815260040161124090612215565b60405180910390fd5b611257600083836001611545565b61126081611014565b156112a0576040517f08c379a000000000000000000000000000000000000000000000000000000000815260040161129790612215565b60405180910390fd5b6001600360008473ffffffffffffffffffffffffffffffffffffffff1673ffffffffffffffffffffffffffffffffffffffff16815260200190815260200160002060008282540192505081905550816002600083815260200190815260200160002060006101000a81548173ffffffffffffffffffffffffffffffffffffffff021916908373ffffffffffffffffffffffffffffffffffffffff160217905550808273ffffffffffffffffffffffffffffffffffffffff16600073ffffffffffffffffffffffffffffffffffffffff167fddf252ad1be2c89b69c2b068fc378daa952ba7f163c4a11628f55a4df523b3ef60405160405180910390a46113aa6000838360016116a5565b5050565b60006113cf8473ffffffffffffffffffffffffffffffffffffffff166116ab565b15611538578373ffffffffffffffffffffffffffffffffffffffff1663150b7a026113f861112d565b8786866040518563ffffffff1660e01b815260040161141a949392919061210c565b602060405180830381600087803b15801561143457600080fd5b505af192505050801561146557506040513d601f19601f820116820180604052508101906114629190611df8565b60015b6114e8573d8060008114611495576040519150601f19603f3d011682016040523d82523d6000602084013e61149a565b606091505b506000815114156114e0576040517f08c379a00000000000000000000000000000000000000000000000000000000081526004016114d7906121d5565b60405180910390fd5b805181602001fd5b63150b7a0260e01b7bffffffffffffffffffffffffffffffffffffffffffffffffffffffff1916817bffffffffffffffffffffffffffffffffffffffffffffffffffffffff19161491505061153d565b600190505b949350505050565b611551848484846116ce565b6001811115611595576040517f08c379a000000000000000000000000000000000000000000000000000000000815260040161158c90612315565b60405180910390fd5b6000829050600073ffffffffffffffffffffffffffffffffffffffff168573ffffffffffffffffffffffffffffffffffffffff1614156115dd576115d8816116d4565b61161c565b8373ffffffffffffffffffffffffffffffffffffffff168573ffffffffffffffffffffffffffffffffffffffff161461161b5761161a858261171d565b5b5b600073ffffffffffffffffffffffffffffffffffffffff168473ffffffffffffffffffffffffffffffffffffffff16141561165f5761165a8161188a565b61169e565b8473ffffffffffffffffffffffffffffffffffffffff168473ffffffffffffffffffffffffffffffffffffffff161461169d5761169c84826119cd565b5b5b5050505050565b50505050565b6000808273ffffffffffffffffffffffffffffffffffffffff163b119050919050565b50505050565b6008805490506009600083815260200190815260200160002081905550600881908060018154018082558091505060019003906000526020600020016000909190919091505550565b6000600161172a8461081d565b6117349190612465565b9050600060076000848152602001908152602001600020549050818114611819576000600660008673ffffffffffffffffffffffffffffffffffffffff1673ffffffffffffffffffffffffffffffffffffffff168152602001908152602001600020600084815260200190815260200160002054905080600660008773ffffffffffffffffffffffffffffffffffffffff1673ffffffffffffffffffffffffffffffffffffffff168152602001908152602001600020600084815260200190815260200160002081905550816007600083815260200190815260200160002081905550505b6007600084815260200190815260200160002060009055600660008573ffffffffffffffffffffffffffffffffffffffff1673ffffffffffffffffffffffffffffffffffffffff16815260200190815260200160002060008381526020019081526020016000206000905550505050565b6000600160088054905061189e9190612465565b90506000600960008481526020019081526020016000205490506000600883815481106118f4577f4e487b7100000000000000000000000000000000000000000000000000000000600052603260045260246000fd5b90600052602060002001549050806008838154811061193c577f4e487b7100000000000000000000000000000000000000000000000000000000600052603260045260246000fd5b9060005260206000200181905550816009600083815260200190815260200160002081905550600960008581526020019081526020016000206000905560088054806119b1577f4e487b7100000000000000000000000000000000000000000000000000000000600052603160045260246000fd5b6001900381819060005260206000200160009055905550505050565b60006119d88361081d565b905081600660008573ffffffffffffffffffffffffffffffffffffffff1673ffffffffffffffffffffffffffffffffffffffff168152602001908152602001600020600083815260200190815260200160002081905550806007600084815260200190815260200160002081905550505050565b828054611a589061254f565b90600052602060002090601f016020900481019282611a7a5760008555611ac1565b82601f10611a9357805160ff1916838001178555611ac1565b82800160010185558215611ac1579182015b82811115611ac0578251825591602001919060010190611aa5565b5b509050611ace9190611ad2565b5090565b5b80821115611aeb576000816000905550600101611ad3565b5090565b6000611b02611afd84612375565b612350565b905082815260208101848484011115611b1a57600080fd5b611b2584828561250d565b509392505050565b6000611b40611b3b846123a6565b612350565b905082815260208101848484011115611b5857600080fd5b611b6384828561250d565b509392505050565b600081359050611b7a8161296f565b92915050565b600081359050611b8f81612986565b92915050565b600081359050611ba48161299d565b92915050565b600081519050611bb98161299d565b92915050565b600082601f830112611bd057600080fd5b8135611be0848260208601611aef565b91505092915050565b600082601f830112611bfa57600080fd5b8135611c0a848260208601611b2d565b91505092915050565b600081359050611c22816129b4565b92915050565b600060208284031215611c3a57600080fd5b6000611c4884828501611b6b565b91505092915050565b60008060408385031215611c6457600080fd5b6000611c7285828601611b6b565b9250506020611c8385828601611b6b565b9150509250929050565b600080600060608486031215611ca257600080fd5b6000611cb086828701611b6b565b9350506020611cc186828701611b6b565b9250506040611cd286828701611c13565b9150509250925092565b60008060008060808587031215611cf257600080fd5b6000611d0087828801611b6b565b9450506020611d1187828801611b6b565b9350506040611d2287828801611c13565b925050606085013567ffffffffffffffff811115611d3f57600080fd5b611d4b87828801611bbf565b91505092959194509250565b60008060408385031215611d6a57600080fd5b6000611d7885828601611b6b565b9250506020611d8985828601611b80565b9150509250929050565b60008060408385031215611da657600080fd5b6000611db485828601611b6b565b9250506020611dc585828601611c13565b9150509250929050565b600060208284031215611de157600080fd5b6000611def84828501611b95565b91505092915050565b600060208284031215611e0a57600080fd5b6000611e1884828501611baa565b91505092915050565b600060208284031215611e3357600080fd5b600082013567ffffffffffffffff811115611e4d57600080fd5b611e5984828501611be9565b91505092915050565b600060208284031215611e7457600080fd5b6000611e8284828501611c13565b91505092915050565b611e9481612499565b82525050565b611ea3816124ab565b82525050565b6000611eb4826123d7565b611ebe81856123ed565b9350611ece81856020860161251c565b611ed78161263f565b840191505092915050565b6000611eed826123e2565b611ef781856123fe565b9350611f0781856020860161251c565b611f108161263f565b840191505092915050565b6000611f28601d836123fe565b9150611f3382612650565b602082019050919050565b6000611f4b602b836123fe565b9150611f5682612679565b604082019050919050565b6000611f6e6032836123fe565b9150611f79826126c8565b604082019050919050565b6000611f916026836123fe565b9150611f9c82612717565b604082019050919050565b6000611fb4601c836123fe565b9150611fbf82612766565b602082019050919050565b6000611fd76029836123fe565b9150611fe28261278f565b604082019050919050565b6000611ffa6020836123fe565b9150612005826127de565b602082019050919050565b600061201d601e836123fe565b915061202882612807565b602082019050919050565b60006120406020836123fe565b915061204b82612830565b602082019050919050565b6000612063602f836123fe565b915061206e82612859565b604082019050919050565b60006120866018836123fe565b9150612091826128a8565b602082019050919050565b60006120a9602c836123fe565b91506120b4826128d1565b604082019050919050565b60006120cc6035836123fe565b91506120d782612920565b604082019050919050565b6120eb81612503565b82525050565b60006020820190506121066000830184611e8b565b92915050565b60006080820190506121216000830187611e8b565b61212e6020830186611e8b565b61213b60408301856120e2565b818103606083015261214d8184611ea9565b905095945050505050565b600060208201905061216d6000830184611e9a565b92915050565b6000602082019050818103600083015261218d8184611ee2565b905092915050565b600060208201905081810360008301526121ae81611f1b565b9050919050565b600060208201905081810360008301526121ce81611f3e565b9050919050565b600060208201905081810360008301526121ee81611f61565b9050919050565b6000602082019050818103600083015261220e81611f84565b9050919050565b6000602082019050818103600083015261222e81611fa7565b9050919050565b6000602082019050818103600083015261224e81611fca565b9050919050565b6000602082019050818103600083015261226e81611fed565b9050919050565b6000602082019050818103600083015261228e81612010565b9050919050565b600060208201905081810360008301526122ae81612033565b9050919050565b600060208201905081810360008301526122ce81612056565b9050919050565b600060208201905081810360008301526122ee81612079565b9050919050565b6000602082019050818103600083015261230e8161209c565b9050919050565b6000602082019050818103600083015261232e816120bf565b9050919050565b600060208201905061234a60008301846120e2565b92915050565b600061235a61236b565b90506123668282612581565b919050565b6000604051905090565b600067ffffffffffffffff8211156123905761238f612610565b5b6123998261263f565b9050602081019050919050565b600067ffffffffffffffff8211156123c1576123c0612610565b5b6123ca8261263f565b9050602081019050919050565b600081519050919050565b600081519050919050565b600082825260208201905092915050565b600082825260208201905092915050565b600061241a82612503565b915061242583612503565b9250827fffffffffffffffffffffffffffffffffffffffffffffffffffffffffffffffff0382111561245a576124596125b2565b5b828201905092915050565b600061247082612503565b915061247b83612503565b92508282101561248e5761248d6125b2565b5b828203905092915050565b60006124a4826124e3565b9050919050565b60008115159050919050565b60007fffffffff0000000000000000000000000000000000000000000000000000000082169050919050565b600073ffffffffffffffffffffffffffffffffffffffff82169050919050565b6000819050919050565b82818337600083830152505050565b60005b8381101561253a57808201518184015260208101905061251f565b83811115612549576000848401525b50505050565b6000600282049050600182168061256757607f821691505b6020821081141561257b5761257a6125e1565b5b50919050565b61258a8261263f565b810181811067ffffffffffffffff821117156125a9576125a8612610565b5b80604052505050565b7f4e487b7100000000000000000000000000000000000000000000000000000000600052601160045260246000fd5b7f4e487b7100000000000000000000000000000000000000000000000000000000600052602260045260246000fd5b7f4e487b7100000000000000000000000000000000000000000000000000000000600052604160045260246000fd5b6000601f19601f8301169050919050565b7f695361693a205472616e73666572732061726520666f7262696464656e000000600082015250565b7f455243373231456e756d657261626c653a206f776e657220696e646578206f7560008201527f74206f6620626f756e6473000000000000000000000000000000000000000000602082015250565b7f4552433732313a207472616e7366657220746f206e6f6e20455243373231526560008201527f63656976657220696d706c656d656e7465720000000000000000000000000000602082015250565b7f4f776e61626c653a206e6577206f776e657220697320746865207a65726f206160008201527f6464726573730000000000000000000000000000000000000000000000000000602082015250565b7f4552433732313a20746f6b656e20616c7265616479206d696e74656400000000600082015250565b7f4552433732313a2061646472657373207a65726f206973206e6f74206120766160008201527f6c6964206f776e65720000000000000000000000000000000000000000000000602082015250565b7f4552433732313a206d696e7420746f20746865207a65726f2061646472657373600082015250565b7f596f75206861766520616c7265616479206d696e7465642033206e6674730000600082015250565b7f4f776e61626c653a2063616c6c6572206973206e6f7420746865206f776e6572600082015250565b7f4552433732314d657461646174613a2055524920717565727920666f72206e6f60008201527f6e6578697374656e7420746f6b656e0000000000000000000000000000000000602082015250565b7f4552433732313a20696e76616c696420746f6b656e2049440000000000000000600082015250565b7f455243373231456e756d657261626c653a20676c6f62616c20696e646578206f60008201527f7574206f6620626f756e64730000000000000000000000000000000000000000602082015250565b7f455243373231456e756d657261626c653a20636f6e736563757469766520747260008201527f616e7366657273206e6f7420737570706f727465640000000000000000000000602082015250565b61297881612499565b811461298357600080fd5b50565b61298f816124ab565b811461299a57600080fd5b50565b6129a6816124b7565b81146129b157600080fd5b50565b6129bd81612503565b81146129c857600080fd5b5056fea2646970667358221220079b7b7ccd1cd7cb42d5a644bfd1d713e91a98cb1f45892d2611eac698b95bc164736f6c63430008040033",
  "linkReferences": {},
  "deployedLinkReferences": {}
}