{
  "_format": "hh-sol-artifact-1",
  "contractName": "iSai",
  "sourceName": "contracts/iSai.sol",
  "abi": [
    {
      "inputs": [],
      "stateMutability": "nonpayable",
      "type": "constructor"
    },
    {
      "anonymous": false,
      "inputs": [
        {
          "indexed": true,
          "internalType": "address",
          "name": "owner",
          "type": "address"
        },
        {
          "indexed": true,
          "internalType": "address",
          "name": "approved",
          "type": "address"
        },
        {
          "indexed": true,
          "internalType": "uint256",
          "name": "tokenId",
          "type": "uint256"
        }
      ],
      "name": "Approval",
      "type": "event"
    },
    {
      "anonymous": false,
      "inputs": [
        {
          "indexed": true,
          "internalType": "address",
          "name": "owner",
          "type": "address"
        },
        {
          "indexed": true,
          "internalType": "address",
          "name": "operator",
          "type": "address"
        },
        {
          "indexed": false,
          "internalType": "bool",
          "name": "approved",
          "type": "bool"
        }
      ],
      "name": "ApprovalForAll",
      "type": "event"
    },
    {
      "anonymous": false,
      "inputs": [
        {
          "indexed": true,
          "internalType": "address",
          "name": "previousOwner",
          "type": "address"
        },
        {
          "indexed": true,
          "internalType": "address",
          "name": "newOwner",
          "type": "address"
        }
      ],
      "name": "OwnershipTransferred",
      "type": "event"
    },
    {
      "anonymous": false,
      "inputs": [
        {
          "indexed": true,
          "internalType": "address",
          "name": "from",
          "type": "address"
        },
        {
          "indexed": true,
          "internalType": "address",
          "name": "to",
          "type": "address"
        },
        {
          "indexed": true,
          "internalType": "uint256",
          "name": "tokenId",
          "type": "uint256"
        }
      ],
      "name": "Transfer",
      "type": "event"
    },
    {
      "inputs": [
        {
          "internalType": "address",
          "name": "_address",
          "type": "address"
        },
        {
          "internalType": "string",
          "name": "_tokenURI",
          "type": "string"
        }
      ],
      "name": "airdropMint",
      "outputs": [],
      "stateMutability": "nonpayable",
      "type": "function"
    },
    {
      "inputs": [
        {
          "internalType": "address",
          "name": "to",
          "type": "address"
        },
        {
          "internalType": "uint256",
          "name": "tokenId",
          "type": "uint256"
        }
      ],
      "name": "approve",
      "outputs": [],
      "stateMutability": "nonpayable",
      "type": "function"
    },
    {
      "inputs": [
        {
          "internalType": "address",
          "name": "owner",
          "type": "address"
        }
      ],
      "name": "balanceOf",
      "outputs": [
        {
          "internalType": "uint256",
          "name": "",
          "type": "uint256"
        }
      ],
      "stateMutability": "view",
      "type": "function"
    },
    {
      "inputs": [
        {
          "internalType": "uint256",
          "name": "tokenId",
          "type": "uint256"
        }
      ],
      "name": "getApproved",
      "outputs": [
        {
          "internalType": "address",
          "name": "",
          "type": "address"
        }
      ],
      "stateMutability": "view",
      "type": "function"
    },
    {
      "inputs": [
        {
          "internalType": "address",
          "name": "owner",
          "type": "address"
        },
        {
          "internalType": "address",
          "name": "operator",
          "type": "address"
        }
      ],
      "name": "isApprovedForAll",
      "outputs": [
        {
          "internalType": "bool",
          "name": "",
          "type": "bool"
        }
      ],
      "stateMutability": "view",
      "type": "function"
    },
    {
      "inputs": [],
      "name": "name",
      "outputs": [
        {
          "internalType": "string",
          "name": "",
          "type": "string"
        }
      ],
      "stateMutability": "view",
      "type": "function"
    },
    {
      "inputs": [],
      "name": "owner",
      "outputs": [
        {
          "internalType": "address",
          "name": "",
          "type": "address"
        }
      ],
      "stateMutability": "view",
      "type": "function"
    },
    {
      "inputs": [
        {
          "internalType": "uint256",
          "name": "tokenId",
          "type": "uint256"
        }
      ],
      "name": "ownerOf",
      "outputs": [
        {
          "internalType": "address",
          "name": "",
          "type": "address"
        }
      ],
      "stateMutability": "view",
      "type": "function"
    },
    {
      "inputs": [],
      "name": "renounceOwnership",
      "outputs": [],
      "stateMutability": "nonpayable",
      "type": "function"
    },
    {
      "inputs": [
        {
          "internalType": "string",
          "name": "_tokenURI",
          "type": "string"
        }
      ],
      "name": "safeMint",
      "outputs": [],
      "stateMutability": "nonpayable",
      "type": "function"
    },
    {
      "inputs": [
        {
          "internalType": "address",
          "name": "from",
          "type": "address"
        },
        {
          "internalType": "address",
          "name": "to",
          "type": "address"
        },
        {
          "internalType": "uint256",
          "name": "tokenId",
          "type": "uint256"
        }
      ],
      "name": "safeTransferFrom",
      "outputs": [],
      "stateMutability": "nonpayable",
      "type": "function"
    },
    {
      "inputs": [
        {
          "internalType": "address",
          "name": "from",
          "type": "address"
        },
        {
          "internalType": "address",
          "name": "to",
          "type": "address"
        },
        {
          "internalType": "uint256",
          "name": "tokenId",
          "type": "uint256"
        },
        {
          "internalType": "bytes",
          "name": "_data",
          "type": "bytes"
        }
      ],
      "name": "safeTransferFrom",
      "outputs": [],
      "stateMutability": "nonpayable",
      "type": "function"
    },
    {
      "inputs": [
        {
          "internalType": "address",
          "name": "operator",
          "type": "address"
        },
        {
          "internalType": "bool",
          "name": "approved",
          "type": "bool"
        }
      ],
      "name": "setApprovalForAll",
      "outputs": [],
      "stateMutability": "nonpayable",
      "type": "function"
    },
    {
      "inputs": [
        {
          "internalType": "bytes4",
          "name": "interfaceId",
          "type": "bytes4"
        }
      ],
      "name": "supportsInterface",
      "outputs": [
        {
          "internalType": "bool",
          "name": "",
          "type": "bool"
        }
      ],
      "stateMutability": "view",
      "type": "function"
    },
    {
      "inputs": [],
      "name": "symbol",
      "outputs": [
        {
          "internalType": "string",
          "name": "",
          "type": "string"
        }
      ],
      "stateMutability": "view",
      "type": "function"
    },
    {
      "inputs": [
        {
          "internalType": "uint256",
          "name": "index",
          "type": "uint256"
        }
      ],
      "name": "tokenByIndex",
      "outputs": [
        {
          "internalType": "uint256",
          "name": "",
          "type": "uint256"
        }
      ],
      "stateMutability": "view",
      "type": "function"
    },
    {
      "inputs": [
        {
          "internalType": "address",
          "name": "owner",
          "type": "address"
        },
        {
          "internalType": "uint256",
          "name": "index",
          "type": "uint256"
        }
      ],
      "name": "tokenOfOwnerByIndex",
      "outputs": [
        {
          "internalType": "uint256",
          "name": "",
          "type": "uint256"
        }
      ],
      "stateMutability": "view",
      "type": "function"
    },
    {
      "inputs": [
        {
          "internalType": "uint256",
          "name": "_tokenId",
          "type": "uint256"
        }
      ],
      "name": "tokenURI",
      "outputs": [
        {
          "internalType": "string",
          "name": "",
          "type": "string"
        }
      ],
      "stateMutability": "view",
      "type": "function"
    },
    {
      "inputs": [],
      "name": "totalSupply",
      "outputs": [
        {
          "internalType": "uint256",
          "name": "",
          "type": "uint256"
        }
      ],
      "stateMutability": "view",
      "type": "function"
    },
    {
      "inputs": [
        {
          "internalType": "address",
          "name": "from",
          "type": "address"
        },
        {
          "internalType": "address",
          "name": "to",
          "type": "address"
        },
        {
          "internalType": "uint256",
          "name": "tokenId",
          "type": "uint256"
        }
      ],
      "name": "transferFrom",
      "outputs": [],
      "stateMutability": "nonpayable",
      "type": "function"
    },
    {
      "inputs": [
        {
          "internalType": "address",
          "name": "newOwner",
          "type": "address"
        }
      ],
      "name": "transferOwnership",
      "outputs": [],
      "stateMutability": "nonpayable",
      "type": "function"
    }
  ],
  "bytecode": "0x60806040523480156200001157600080fd5b506040518060400160405280600481526020017f4e616d65000000000000000000000000000000000000000000000000000000008152506040518060400160405280600681526020017f53796d626f6c0000000000000000000000000000000000000000000000000000815250816000908051906020019062000096929190620001a6565b508060019080519060200190620000af929190620001a6565b505050620000d2620000c6620000d860201b60201c565b620000e060201b60201c565b620002bb565b600033905090565b6000600a60009054906101000a900473ffffffffffffffffffffffffffffffffffffffff16905081600a60006101000a81548173ffffffffffffffffffffffffffffffffffffffff021916908373ffffffffffffffffffffffffffffffffffffffff1602179055508173ffffffffffffffffffffffffffffffffffffffff168173ffffffffffffffffffffffffffffffffffffffff167f8be0079c531659141344cd1fd0a4f28419497f9722a3daafe3b4186f6b6457e060405160405180910390a35050565b828054620001b49062000256565b90600052602060002090601f016020900481019282620001d8576000855562000224565b82601f10620001f357805160ff191683800117855562000224565b8280016001018555821562000224579182015b828111156200022357825182559160200191906001019062000206565b5b50905062000233919062000237565b5090565b5b808211156200025257600081600090555060010162000238565b5090565b600060028204905060018216806200026f57607f821691505b602082108114156200028657620002856200028c565b5b50919050565b7f4e487b7100000000000000000000000000000000000000000000000000000000600052602260045260246000fd5b6128cf80620002cb6000396000f3fe608060405234801561001057600080fd5b50600436106101375760003560e01c8063695850fb116100b857806395d89b411161007c57806395d89b411461034c578063a22cb4651461036a578063b88d4fde14610386578063c87b56dd146103a2578063e985e9c5146103d2578063f2fde38b1461040257610137565b8063695850fb146102bc5780636a6385c0146102d857806370a08231146102f4578063715018a6146103245780638da5cb5b1461032e57610137565b806323b872dd116100ff57806323b872dd146101f45780632f745c591461021057806342842e0e146102405780634f6ccce71461025c5780636352211e1461028c57610137565b806301ffc9a71461013c57806306fdde031461016c578063081812fc1461018a578063095ea7b3146101ba57806318160ddd146101d6575b600080fd5b61015660048036038101906101519190611d5f565b61041e565b60405161016391906120c5565b60405180910390f35b610174610498565b60405161018191906120e0565b60405180910390f35b6101a4600480360381019061019f9190611df2565b61052a565b6040516101b1919061205e565b60405180910390f35b6101d460048036038101906101cf9190611d23565b610570565b005b6101de6105ab565b6040516101eb9190612282565b60405180910390f35b61020e60048036038101906102099190611bc9565b6105b8565b005b61022a60048036038101906102259190611d23565b6105f3565b6040516102379190612282565b60405180910390f35b61025a60048036038101906102559190611bc9565b610698565b005b61027660048036038101906102719190611df2565b6106d3565b6040516102839190612282565b60405180910390f35b6102a660048036038101906102a19190611df2565b61076a565b6040516102b3919061205e565b60405180910390f35b6102d660048036038101906102d19190611db1565b6107f1565b005b6102f260048036038101906102ed9190611ccf565b610829565b005b61030e60048036038101906103099190611b64565b610862565b60405161031b9190612282565b60405180910390f35b61032c61091a565b005b61033661092e565b604051610343919061205e565b60405180910390f35b610354610958565b60405161036191906120e0565b60405180910390f35b610384600480360381019061037f9190611c93565b6109ea565b005b6103a0600480360381019061039b9190611c18565b610a25565b005b6103bc60048036038101906103b79190611df2565b610a60565b6040516103c991906120e0565b60405180910390f35b6103ec60048036038101906103e79190611b8d565b610b8a565b6040516103f991906120c5565b60405180910390f35b61041c60048036038101906104179190611b64565b610c1e565b005b60007f780e9d63000000000000000000000000000000000000000000000000000000007bffffffffffffffffffffffffffffffffffffffffffffffffffffffff1916827bffffffffffffffffffffffffffffffffffffffffffffffffffffffff19161480610491575061049082610ca2565b5b9050919050565b6060600080546104a790612446565b80601f01602080910402602001604051908101604052809291908181526020018280546104d390612446565b80156105205780601f106104f557610100808354040283529160200191610520565b820191906000526020600020905b81548152906001019060200180831161050357829003601f168201915b5050505050905090565b600061053582610d84565b6004600083815260200190815260200160002060009054906101000a900473ffffffffffffffffffffffffffffffffffffffff169050919050565b6040517f08c379a00000000000000000000000000000000000000000000000000000000081526004016105a290612102565b60405180910390fd5b6000600880549050905090565b6040517f08c379a00000000000000000000000000000000000000000000000000000000081526004016105ea90612102565b60405180910390fd5b60006105fe83610862565b821061063f576040517f08c379a000000000000000000000000000000000000000000000000000000000815260040161063690612122565b60405180910390fd5b600660008473ffffffffffffffffffffffffffffffffffffffff1673ffffffffffffffffffffffffffffffffffffffff168152602001908152602001600020600083815260200190815260200160002054905092915050565b6040517f08c379a00000000000000000000000000000000000000000000000000000000081526004016106ca90612102565b60405180910390fd5b60006106dd6105ab565b821061071e576040517f08c379a000000000000000000000000000000000000000000000000000000000815260040161071590612242565b60405180910390fd5b60088281548110610758577f4e487b7100000000000000000000000000000000000000000000000000000000600052603260045260246000fd5b90600052602060002001549050919050565b60008061077683610dcf565b9050600073ffffffffffffffffffffffffffffffffffffffff168173ffffffffffffffffffffffffffffffffffffffff1614156107e8576040517f08c379a00000000000000000000000000000000000000000000000000000000081526004016107df90612222565b60405180910390fd5b80915050919050565b6107f9610e0c565b6000610805600c610e8a565b9050610811600c610e98565b61081b3382610eae565b6108258183610ecc565b5050565b610831610e0c565b600061083d600c610e8a565b9050610849600c610e98565b6108538382610eae565b61085d8183610ecc565b505050565b60008073ffffffffffffffffffffffffffffffffffffffff168273ffffffffffffffffffffffffffffffffffffffff1614156108d3576040517f08c379a00000000000000000000000000000000000000000000000000000000081526004016108ca906121a2565b60405180910390fd5b600360008373ffffffffffffffffffffffffffffffffffffffff1673ffffffffffffffffffffffffffffffffffffffff168152602001908152602001600020549050919050565b610922610e0c565b61092c6000610ef8565b565b6000600a60009054906101000a900473ffffffffffffffffffffffffffffffffffffffff16905090565b60606001805461096790612446565b80601f016020809104026020016040519081016040528092919081815260200182805461099390612446565b80156109e05780601f106109b5576101008083540402835291602001916109e0565b820191906000526020600020905b8154815290600101906020018083116109c357829003601f168201915b5050505050905090565b6040517f08c379a0000000000000000000000000000000000000000000000000000000008152600401610a1c90612102565b60405180910390fd5b6040517f08c379a0000000000000000000000000000000000000000000000000000000008152600401610a5790612102565b60405180910390fd5b6060610a6b82610fbe565b610aaa576040517f08c379a0000000000000000000000000000000000000000000000000000000008152600401610aa190612202565b60405180910390fd5b6000600d60008481526020019081526020016000208054610aca90612446565b905011610ae65760405180602001604052806000815250610b83565b600d60008381526020019081526020016000208054610b0490612446565b80601f0160208091040260200160405190810160405280929190818152602001828054610b3090612446565b8015610b7d5780601f10610b5257610100808354040283529160200191610b7d565b820191906000526020600020905b815481529060010190602001808311610b6057829003601f168201915b50505050505b9050919050565b6000600560008473ffffffffffffffffffffffffffffffffffffffff1673ffffffffffffffffffffffffffffffffffffffff16815260200190815260200160002060008373ffffffffffffffffffffffffffffffffffffffff1673ffffffffffffffffffffffffffffffffffffffff16815260200190815260200160002060009054906101000a900460ff16905092915050565b610c26610e0c565b600073ffffffffffffffffffffffffffffffffffffffff168173ffffffffffffffffffffffffffffffffffffffff161415610c96576040517f08c379a0000000000000000000000000000000000000000000000000000000008152600401610c8d90612162565b60405180910390fd5b610c9f81610ef8565b50565b60007f80ac58cd000000000000000000000000000000000000000000000000000000007bffffffffffffffffffffffffffffffffffffffffffffffffffffffff1916827bffffffffffffffffffffffffffffffffffffffffffffffffffffffff19161480610d6d57507f5b5e139f000000000000000000000000000000000000000000000000000000007bffffffffffffffffffffffffffffffffffffffffffffffffffffffff1916827bffffffffffffffffffffffffffffffffffffffffffffffffffffffff1916145b80610d7d5750610d7c82610fff565b5b9050919050565b610d8d81610fbe565b610dcc576040517f08c379a0000000000000000000000000000000000000000000000000000000008152600401610dc390612222565b60405180910390fd5b50565b60006002600083815260200190815260200160002060009054906101000a900473ffffffffffffffffffffffffffffffffffffffff169050919050565b610e14611069565b73ffffffffffffffffffffffffffffffffffffffff16610e3261092e565b73ffffffffffffffffffffffffffffffffffffffff1614610e88576040517f08c379a0000000000000000000000000000000000000000000000000000000008152600401610e7f906121e2565b60405180910390fd5b565b600081600001549050919050565b6001816000016000828254019250508190555050565b610ec8828260405180602001604052806000815250611071565b5050565b80600d60008481526020019081526020016000209080519060200190610ef3929190611988565b505050565b6000600a60009054906101000a900473ffffffffffffffffffffffffffffffffffffffff16905081600a60006101000a81548173ffffffffffffffffffffffffffffffffffffffff021916908373ffffffffffffffffffffffffffffffffffffffff1602179055508173ffffffffffffffffffffffffffffffffffffffff168173ffffffffffffffffffffffffffffffffffffffff167f8be0079c531659141344cd1fd0a4f28419497f9722a3daafe3b4186f6b6457e060405160405180910390a35050565b60008073ffffffffffffffffffffffffffffffffffffffff16610fe083610dcf565b73ffffffffffffffffffffffffffffffffffffffff1614159050919050565b60007f01ffc9a7000000000000000000000000000000000000000000000000000000007bffffffffffffffffffffffffffffffffffffffffffffffffffffffff1916827bffffffffffffffffffffffffffffffffffffffffffffffffffffffff1916149050919050565b600033905090565b61107b83836110cc565b61108860008484846112ea565b6110c7576040517f08c379a00000000000000000000000000000000000000000000000000000000081526004016110be90612142565b60405180910390fd5b505050565b600073ffffffffffffffffffffffffffffffffffffffff168273ffffffffffffffffffffffffffffffffffffffff16141561113c576040517f08c379a0000000000000000000000000000000000000000000000000000000008152600401611133906121c2565b60405180910390fd5b61114581610fbe565b15611185576040517f08c379a000000000000000000000000000000000000000000000000000000000815260040161117c90612182565b60405180910390fd5b611193600083836001611481565b61119c81610fbe565b156111dc576040517f08c379a00000000000000000000000000000000000000000000000000000000081526004016111d390612182565b60405180910390fd5b6001600360008473ffffffffffffffffffffffffffffffffffffffff1673ffffffffffffffffffffffffffffffffffffffff16815260200190815260200160002060008282540192505081905550816002600083815260200190815260200160002060006101000a81548173ffffffffffffffffffffffffffffffffffffffff021916908373ffffffffffffffffffffffffffffffffffffffff160217905550808273ffffffffffffffffffffffffffffffffffffffff16600073ffffffffffffffffffffffffffffffffffffffff167fddf252ad1be2c89b69c2b068fc378daa952ba7f163c4a11628f55a4df523b3ef60405160405180910390a46112e66000838360016115e1565b5050565b600061130b8473ffffffffffffffffffffffffffffffffffffffff166115e7565b15611474578373ffffffffffffffffffffffffffffffffffffffff1663150b7a02611334611069565b8786866040518563ffffffff1660e01b81526004016113569493929190612079565b602060405180830381600087803b15801561137057600080fd5b505af19250505080156113a157506040513d601f19601f8201168201806040525081019061139e9190611d88565b60015b611424573d80600081146113d1576040519150601f19603f3d011682016040523d82523d6000602084013e6113d6565b606091505b5060008151141561141c576040517f08c379a000000000000000000000000000000000000000000000000000000000815260040161141390612142565b60405180910390fd5b805181602001fd5b63150b7a0260e01b7bffffffffffffffffffffffffffffffffffffffffffffffffffffffff1916817bffffffffffffffffffffffffffffffffffffffffffffffffffffffff191614915050611479565b600190505b949350505050565b61148d8484848461160a565b60018111156114d1576040517f08c379a00000000000000000000000000000000000000000000000000000000081526004016114c890612262565b60405180910390fd5b6000829050600073ffffffffffffffffffffffffffffffffffffffff168573ffffffffffffffffffffffffffffffffffffffff1614156115195761151481611610565b611558565b8373ffffffffffffffffffffffffffffffffffffffff168573ffffffffffffffffffffffffffffffffffffffff1614611557576115568582611659565b5b5b600073ffffffffffffffffffffffffffffffffffffffff168473ffffffffffffffffffffffffffffffffffffffff16141561159b57611596816117c6565b6115da565b8473ffffffffffffffffffffffffffffffffffffffff168473ffffffffffffffffffffffffffffffffffffffff16146115d9576115d88482611909565b5b5b5050505050565b50505050565b6000808273ffffffffffffffffffffffffffffffffffffffff163b119050919050565b50505050565b6008805490506009600083815260200190815260200160002081905550600881908060018154018082558091505060019003906000526020600020016000909190919091505550565b6000600161166684610862565b611670919061235c565b9050600060076000848152602001908152602001600020549050818114611755576000600660008673ffffffffffffffffffffffffffffffffffffffff1673ffffffffffffffffffffffffffffffffffffffff168152602001908152602001600020600084815260200190815260200160002054905080600660008773ffffffffffffffffffffffffffffffffffffffff1673ffffffffffffffffffffffffffffffffffffffff168152602001908152602001600020600084815260200190815260200160002081905550816007600083815260200190815260200160002081905550505b6007600084815260200190815260200160002060009055600660008573ffffffffffffffffffffffffffffffffffffffff1673ffffffffffffffffffffffffffffffffffffffff16815260200190815260200160002060008381526020019081526020016000206000905550505050565b600060016008805490506117da919061235c565b9050600060096000848152602001908152602001600020549050600060088381548110611830577f4e487b7100000000000000000000000000000000000000000000000000000000600052603260045260246000fd5b906000526020600020015490508060088381548110611878577f4e487b7100000000000000000000000000000000000000000000000000000000600052603260045260246000fd5b9060005260206000200181905550816009600083815260200190815260200160002081905550600960008581526020019081526020016000206000905560088054806118ed577f4e487b7100000000000000000000000000000000000000000000000000000000600052603160045260246000fd5b6001900381819060005260206000200160009055905550505050565b600061191483610862565b905081600660008573ffffffffffffffffffffffffffffffffffffffff1673ffffffffffffffffffffffffffffffffffffffff168152602001908152602001600020600083815260200190815260200160002081905550806007600084815260200190815260200160002081905550505050565b82805461199490612446565b90600052602060002090601f0160209004810192826119b657600085556119fd565b82601f106119cf57805160ff19168380011785556119fd565b828001600101855582156119fd579182015b828111156119fc5782518255916020019190600101906119e1565b5b509050611a0a9190611a0e565b5090565b5b80821115611a27576000816000905550600101611a0f565b5090565b6000611a3e611a39846122c2565b61229d565b905082815260208101848484011115611a5657600080fd5b611a61848285612404565b509392505050565b6000611a7c611a77846122f3565b61229d565b905082815260208101848484011115611a9457600080fd5b611a9f848285612404565b509392505050565b600081359050611ab68161283d565b92915050565b600081359050611acb81612854565b92915050565b600081359050611ae08161286b565b92915050565b600081519050611af58161286b565b92915050565b600082601f830112611b0c57600080fd5b8135611b1c848260208601611a2b565b91505092915050565b600082601f830112611b3657600080fd5b8135611b46848260208601611a69565b91505092915050565b600081359050611b5e81612882565b92915050565b600060208284031215611b7657600080fd5b6000611b8484828501611aa7565b91505092915050565b60008060408385031215611ba057600080fd5b6000611bae85828601611aa7565b9250506020611bbf85828601611aa7565b9150509250929050565b600080600060608486031215611bde57600080fd5b6000611bec86828701611aa7565b9350506020611bfd86828701611aa7565b9250506040611c0e86828701611b4f565b9150509250925092565b60008060008060808587031215611c2e57600080fd5b6000611c3c87828801611aa7565b9450506020611c4d87828801611aa7565b9350506040611c5e87828801611b4f565b925050606085013567ffffffffffffffff811115611c7b57600080fd5b611c8787828801611afb565b91505092959194509250565b60008060408385031215611ca657600080fd5b6000611cb485828601611aa7565b9250506020611cc585828601611abc565b9150509250929050565b60008060408385031215611ce257600080fd5b6000611cf085828601611aa7565b925050602083013567ffffffffffffffff811115611d0d57600080fd5b611d1985828601611b25565b9150509250929050565b60008060408385031215611d3657600080fd5b6000611d4485828601611aa7565b9250506020611d5585828601611b4f565b9150509250929050565b600060208284031215611d7157600080fd5b6000611d7f84828501611ad1565b91505092915050565b600060208284031215611d9a57600080fd5b6000611da884828501611ae6565b91505092915050565b600060208284031215611dc357600080fd5b600082013567ffffffffffffffff811115611ddd57600080fd5b611de984828501611b25565b91505092915050565b600060208284031215611e0457600080fd5b6000611e1284828501611b4f565b91505092915050565b611e2481612390565b82525050565b611e33816123a2565b82525050565b6000611e4482612324565b611e4e818561233a565b9350611e5e818560208601612413565b611e6781612536565b840191505092915050565b6000611e7d8261232f565b611e87818561234b565b9350611e97818560208601612413565b611ea081612536565b840191505092915050565b6000611eb8601d8361234b565b9150611ec382612547565b602082019050919050565b6000611edb602b8361234b565b9150611ee682612570565b604082019050919050565b6000611efe60328361234b565b9150611f09826125bf565b604082019050919050565b6000611f2160268361234b565b9150611f2c8261260e565b604082019050919050565b6000611f44601c8361234b565b9150611f4f8261265d565b602082019050919050565b6000611f6760298361234b565b9150611f7282612686565b604082019050919050565b6000611f8a60208361234b565b9150611f95826126d5565b602082019050919050565b6000611fad60208361234b565b9150611fb8826126fe565b602082019050919050565b6000611fd0602f8361234b565b9150611fdb82612727565b604082019050919050565b6000611ff360188361234b565b9150611ffe82612776565b602082019050919050565b6000612016602c8361234b565b91506120218261279f565b604082019050919050565b600061203960358361234b565b9150612044826127ee565b604082019050919050565b612058816123fa565b82525050565b60006020820190506120736000830184611e1b565b92915050565b600060808201905061208e6000830187611e1b565b61209b6020830186611e1b565b6120a8604083018561204f565b81810360608301526120ba8184611e39565b905095945050505050565b60006020820190506120da6000830184611e2a565b92915050565b600060208201905081810360008301526120fa8184611e72565b905092915050565b6000602082019050818103600083015261211b81611eab565b9050919050565b6000602082019050818103600083015261213b81611ece565b9050919050565b6000602082019050818103600083015261215b81611ef1565b9050919050565b6000602082019050818103600083015261217b81611f14565b9050919050565b6000602082019050818103600083015261219b81611f37565b9050919050565b600060208201905081810360008301526121bb81611f5a565b9050919050565b600060208201905081810360008301526121db81611f7d565b9050919050565b600060208201905081810360008301526121fb81611fa0565b9050919050565b6000602082019050818103600083015261221b81611fc3565b9050919050565b6000602082019050818103600083015261223b81611fe6565b9050919050565b6000602082019050818103600083015261225b81612009565b9050919050565b6000602082019050818103600083015261227b8161202c565b9050919050565b6000602082019050612297600083018461204f565b92915050565b60006122a76122b8565b90506122b38282612478565b919050565b6000604051905090565b600067ffffffffffffffff8211156122dd576122dc612507565b5b6122e682612536565b9050602081019050919050565b600067ffffffffffffffff82111561230e5761230d612507565b5b61231782612536565b9050602081019050919050565b600081519050919050565b600081519050919050565b600082825260208201905092915050565b600082825260208201905092915050565b6000612367826123fa565b9150612372836123fa565b925082821015612385576123846124a9565b5b828203905092915050565b600061239b826123da565b9050919050565b60008115159050919050565b60007fffffffff0000000000000000000000000000000000000000000000000000000082169050919050565b600073ffffffffffffffffffffffffffffffffffffffff82169050919050565b6000819050919050565b82818337600083830152505050565b60005b83811015612431578082015181840152602081019050612416565b83811115612440576000848401525b50505050565b6000600282049050600182168061245e57607f821691505b60208210811415612472576124716124d8565b5b50919050565b61248182612536565b810181811067ffffffffffffffff821117156124a05761249f612507565b5b80604052505050565b7f4e487b7100000000000000000000000000000000000000000000000000000000600052601160045260246000fd5b7f4e487b7100000000000000000000000000000000000000000000000000000000600052602260045260246000fd5b7f4e487b7100000000000000000000000000000000000000000000000000000000600052604160045260246000fd5b6000601f19601f8301169050919050565b7f695361693a205472616e73666572732061726520666f7262696464656e000000600082015250565b7f455243373231456e756d657261626c653a206f776e657220696e646578206f7560008201527f74206f6620626f756e6473000000000000000000000000000000000000000000602082015250565b7f4552433732313a207472616e7366657220746f206e6f6e20455243373231526560008201527f63656976657220696d706c656d656e7465720000000000000000000000000000602082015250565b7f4f776e61626c653a206e6577206f776e657220697320746865207a65726f206160008201527f6464726573730000000000000000000000000000000000000000000000000000602082015250565b7f4552433732313a20746f6b656e20616c7265616479206d696e74656400000000600082015250565b7f4552433732313a2061646472657373207a65726f206973206e6f74206120766160008201527f6c6964206f776e65720000000000000000000000000000000000000000000000602082015250565b7f4552433732313a206d696e7420746f20746865207a65726f2061646472657373600082015250565b7f4f776e61626c653a2063616c6c6572206973206e6f7420746865206f776e6572600082015250565b7f4552433732314d657461646174613a2055524920717565727920666f72206e6f60008201527f6e6578697374656e7420746f6b656e0000000000000000000000000000000000602082015250565b7f4552433732313a20696e76616c696420746f6b656e2049440000000000000000600082015250565b7f455243373231456e756d657261626c653a20676c6f62616c20696e646578206f60008201527f7574206f6620626f756e64730000000000000000000000000000000000000000602082015250565b7f455243373231456e756d657261626c653a20636f6e736563757469766520747260008201527f616e7366657273206e6f7420737570706f727465640000000000000000000000602082015250565b61284681612390565b811461285157600080fd5b50565b61285d816123a2565b811461286857600080fd5b50565b612874816123ae565b811461287f57600080fd5b50565b61288b816123fa565b811461289657600080fd5b5056fea264697066735822122096721705f9f5ee6afdd931378d003ec19c09b9496d91e6dd4af47eea85cc95e964736f6c63430008040033",
  "linkReferences": {},
  "deployedLinkReferences": {}
}