{
  "_format": "hh-sol-artifact-1",
  "contractName": "iSai",
  "sourceName": "contracts/iSai.sol",
  "abi": [
    {
      "inputs": [],
      "stateMutability": "nonpayable",
      "type": "constructor"
    },
    {
      "anonymous": false,
      "inputs": [
        {
          "indexed": true,
          "internalType": "address",
          "name": "owner",
          "type": "address"
        },
        {
          "indexed": true,
          "internalType": "address",
          "name": "approved",
          "type": "address"
        },
        {
          "indexed": true,
          "internalType": "uint256",
          "name": "tokenId",
          "type": "uint256"
        }
      ],
      "name": "Approval",
      "type": "event"
    },
    {
      "anonymous": false,
      "inputs": [
        {
          "indexed": true,
          "internalType": "address",
          "name": "owner",
          "type": "address"
        },
        {
          "indexed": true,
          "internalType": "address",
          "name": "operator",
          "type": "address"
        },
        {
          "indexed": false,
          "internalType": "bool",
          "name": "approved",
          "type": "bool"
        }
      ],
      "name": "ApprovalForAll",
      "type": "event"
    },
    {
      "anonymous": false,
      "inputs": [
        {
          "indexed": true,
          "internalType": "address",
          "name": "previousOwner",
          "type": "address"
        },
        {
          "indexed": true,
          "internalType": "address",
          "name": "newOwner",
          "type": "address"
        }
      ],
      "name": "OwnershipTransferred",
      "type": "event"
    },
    {
      "anonymous": false,
      "inputs": [
        {
          "indexed": true,
          "internalType": "address",
          "name": "from",
          "type": "address"
        },
        {
          "indexed": true,
          "internalType": "address",
          "name": "to",
          "type": "address"
        },
        {
          "indexed": true,
          "internalType": "uint256",
          "name": "tokenId",
          "type": "uint256"
        }
      ],
      "name": "Transfer",
      "type": "event"
    },
    {
      "inputs": [
        {
          "internalType": "address",
          "name": "_address",
          "type": "address"
        },
        {
          "internalType": "string",
          "name": "_tokenURI",
          "type": "string"
        }
      ],
      "name": "airdropMint",
      "outputs": [],
      "stateMutability": "nonpayable",
      "type": "function"
    },
    {
      "inputs": [
        {
          "internalType": "address",
          "name": "to",
          "type": "address"
        },
        {
          "internalType": "uint256",
          "name": "tokenId",
          "type": "uint256"
        }
      ],
      "name": "approve",
      "outputs": [],
      "stateMutability": "nonpayable",
      "type": "function"
    },
    {
      "inputs": [
        {
          "internalType": "address",
          "name": "owner",
          "type": "address"
        }
      ],
      "name": "balanceOf",
      "outputs": [
        {
          "internalType": "uint256",
          "name": "",
          "type": "uint256"
        }
      ],
      "stateMutability": "view",
      "type": "function"
    },
    {
      "inputs": [
        {
          "internalType": "uint256",
          "name": "tokenId",
          "type": "uint256"
        }
      ],
      "name": "getApproved",
      "outputs": [
        {
          "internalType": "address",
          "name": "",
          "type": "address"
        }
      ],
      "stateMutability": "view",
      "type": "function"
    },
    {
      "inputs": [
        {
          "internalType": "address",
          "name": "owner",
          "type": "address"
        },
        {
          "internalType": "address",
          "name": "operator",
          "type": "address"
        }
      ],
      "name": "isApprovedForAll",
      "outputs": [
        {
          "internalType": "bool",
          "name": "",
          "type": "bool"
        }
      ],
      "stateMutability": "view",
      "type": "function"
    },
    {
      "inputs": [],
      "name": "name",
      "outputs": [
        {
          "internalType": "string",
          "name": "",
          "type": "string"
        }
      ],
      "stateMutability": "view",
      "type": "function"
    },
    {
      "inputs": [],
      "name": "owner",
      "outputs": [
        {
          "internalType": "address",
          "name": "",
          "type": "address"
        }
      ],
      "stateMutability": "view",
      "type": "function"
    },
    {
      "inputs": [
        {
          "internalType": "uint256",
          "name": "tokenId",
          "type": "uint256"
        }
      ],
      "name": "ownerOf",
      "outputs": [
        {
          "internalType": "address",
          "name": "",
          "type": "address"
        }
      ],
      "stateMutability": "view",
      "type": "function"
    },
    {
      "inputs": [],
      "name": "renounceOwnership",
      "outputs": [],
      "stateMutability": "nonpayable",
      "type": "function"
    },
    {
      "inputs": [
        {
          "internalType": "string",
          "name": "_tokenURI",
          "type": "string"
        }
      ],
      "name": "safeMint",
      "outputs": [],
      "stateMutability": "nonpayable",
      "type": "function"
    },
    {
      "inputs": [
        {
          "internalType": "address",
          "name": "from",
          "type": "address"
        },
        {
          "internalType": "address",
          "name": "to",
          "type": "address"
        },
        {
          "internalType": "uint256",
          "name": "tokenId",
          "type": "uint256"
        }
      ],
      "name": "safeTransferFrom",
      "outputs": [],
      "stateMutability": "nonpayable",
      "type": "function"
    },
    {
      "inputs": [
        {
          "internalType": "address",
          "name": "from",
          "type": "address"
        },
        {
          "internalType": "address",
          "name": "to",
          "type": "address"
        },
        {
          "internalType": "uint256",
          "name": "tokenId",
          "type": "uint256"
        },
        {
          "internalType": "bytes",
          "name": "_data",
          "type": "bytes"
        }
      ],
      "name": "safeTransferFrom",
      "outputs": [],
      "stateMutability": "nonpayable",
      "type": "function"
    },
    {
      "inputs": [
        {
          "internalType": "address",
          "name": "operator",
          "type": "address"
        },
        {
          "internalType": "bool",
          "name": "approved",
          "type": "bool"
        }
      ],
      "name": "setApprovalForAll",
      "outputs": [],
      "stateMutability": "nonpayable",
      "type": "function"
    },
    {
      "inputs": [
        {
          "internalType": "bytes4",
          "name": "interfaceId",
          "type": "bytes4"
        }
      ],
      "name": "supportsInterface",
      "outputs": [
        {
          "internalType": "bool",
          "name": "",
          "type": "bool"
        }
      ],
      "stateMutability": "view",
      "type": "function"
    },
    {
      "inputs": [],
      "name": "symbol",
      "outputs": [
        {
          "internalType": "string",
          "name": "",
          "type": "string"
        }
      ],
      "stateMutability": "view",
      "type": "function"
    },
    {
      "inputs": [
        {
          "internalType": "uint256",
          "name": "index",
          "type": "uint256"
        }
      ],
      "name": "tokenByIndex",
      "outputs": [
        {
          "internalType": "uint256",
          "name": "",
          "type": "uint256"
        }
      ],
      "stateMutability": "view",
      "type": "function"
    },
    {
      "inputs": [
        {
          "internalType": "address",
          "name": "owner",
          "type": "address"
        },
        {
          "internalType": "uint256",
          "name": "index",
          "type": "uint256"
        }
      ],
      "name": "tokenOfOwnerByIndex",
      "outputs": [
        {
          "internalType": "uint256",
          "name": "",
          "type": "uint256"
        }
      ],
      "stateMutability": "view",
      "type": "function"
    },
    {
      "inputs": [
        {
          "internalType": "uint256",
          "name": "_tokenId",
          "type": "uint256"
        }
      ],
      "name": "tokenURI",
      "outputs": [
        {
          "internalType": "string",
          "name": "",
          "type": "string"
        }
      ],
      "stateMutability": "view",
      "type": "function"
    },
    {
      "inputs": [],
      "name": "totalSupply",
      "outputs": [
        {
          "internalType": "uint256",
          "name": "",
          "type": "uint256"
        }
      ],
      "stateMutability": "view",
      "type": "function"
    },
    {
      "inputs": [
        {
          "internalType": "address",
          "name": "from",
          "type": "address"
        },
        {
          "internalType": "address",
          "name": "to",
          "type": "address"
        },
        {
          "internalType": "uint256",
          "name": "tokenId",
          "type": "uint256"
        }
      ],
      "name": "transferFrom",
      "outputs": [],
      "stateMutability": "nonpayable",
      "type": "function"
    },
    {
      "inputs": [
        {
          "internalType": "address",
          "name": "newOwner",
          "type": "address"
        }
      ],
      "name": "transferOwnership",
      "outputs": [],
      "stateMutability": "nonpayable",
      "type": "function"
    }
  ],
  "bytecode": "0x60806040523480156200001157600080fd5b506040518060400160405280600481526020017f69536169000000000000000000000000000000000000000000000000000000008152506040518060400160405280600481526020017f6953616900000000000000000000000000000000000000000000000000000000815250816000908051906020019062000096929190620001a6565b508060019080519060200190620000af929190620001a6565b505050620000d2620000c6620000d860201b60201c565b620000e060201b60201c565b620002bb565b600033905090565b6000600a60009054906101000a900473ffffffffffffffffffffffffffffffffffffffff16905081600a60006101000a81548173ffffffffffffffffffffffffffffffffffffffff021916908373ffffffffffffffffffffffffffffffffffffffff1602179055508173ffffffffffffffffffffffffffffffffffffffff168173ffffffffffffffffffffffffffffffffffffffff167f8be0079c531659141344cd1fd0a4f28419497f9722a3daafe3b4186f6b6457e060405160405180910390a35050565b828054620001b49062000256565b90600052602060002090601f016020900481019282620001d8576000855562000224565b82601f10620001f357805160ff191683800117855562000224565b8280016001018555821562000224579182015b828111156200022357825182559160200191906001019062000206565b5b50905062000233919062000237565b5090565b5b808211156200025257600081600090555060010162000238565b5090565b600060028204905060018216806200026f57607f821691505b602082108114156200028657620002856200028c565b5b50919050565b7f4e487b7100000000000000000000000000000000000000000000000000000000600052602260045260246000fd5b6128bf80620002cb6000396000f3fe608060405234801561001057600080fd5b50600436106101375760003560e01c8063695850fb116100b857806395d89b411161007c57806395d89b411461034c578063a22cb4651461036a578063b88d4fde14610386578063c87b56dd146103a2578063e985e9c5146103d2578063f2fde38b1461040257610137565b8063695850fb146102bc5780636a6385c0146102d857806370a08231146102f4578063715018a6146103245780638da5cb5b1461032e57610137565b806323b872dd116100ff57806323b872dd146101f45780632f745c591461021057806342842e0e146102405780634f6ccce71461025c5780636352211e1461028c57610137565b806301ffc9a71461013c57806306fdde031461016c578063081812fc1461018a578063095ea7b3146101ba57806318160ddd146101d6575b600080fd5b61015660048036038101906101519190611d4f565b61041e565b60405161016391906120b5565b60405180910390f35b610174610498565b60405161018191906120d0565b60405180910390f35b6101a4600480360381019061019f9190611de2565b61052a565b6040516101b1919061204e565b60405180910390f35b6101d460048036038101906101cf9190611d13565b610570565b005b6101de6105ab565b6040516101eb9190612272565b60405180910390f35b61020e60048036038101906102099190611bb9565b6105b8565b005b61022a60048036038101906102259190611d13565b6105f3565b6040516102379190612272565b60405180910390f35b61025a60048036038101906102559190611bb9565b610698565b005b61027660048036038101906102719190611de2565b6106d3565b6040516102839190612272565b60405180910390f35b6102a660048036038101906102a19190611de2565b61076a565b6040516102b3919061204e565b60405180910390f35b6102d660048036038101906102d19190611da1565b6107f1565b005b6102f260048036038101906102ed9190611cbf565b610821565b005b61030e60048036038101906103099190611b54565b610852565b60405161031b9190612272565b60405180910390f35b61032c61090a565b005b61033661091e565b604051610343919061204e565b60405180910390f35b610354610948565b60405161036191906120d0565b60405180910390f35b610384600480360381019061037f9190611c83565b6109da565b005b6103a0600480360381019061039b9190611c08565b610a15565b005b6103bc60048036038101906103b79190611de2565b610a50565b6040516103c991906120d0565b60405180910390f35b6103ec60048036038101906103e79190611b7d565b610b7a565b6040516103f991906120b5565b60405180910390f35b61041c60048036038101906104179190611b54565b610c0e565b005b60007f780e9d63000000000000000000000000000000000000000000000000000000007bffffffffffffffffffffffffffffffffffffffffffffffffffffffff1916827bffffffffffffffffffffffffffffffffffffffffffffffffffffffff19161480610491575061049082610c92565b5b9050919050565b6060600080546104a790612436565b80601f01602080910402602001604051908101604052809291908181526020018280546104d390612436565b80156105205780601f106104f557610100808354040283529160200191610520565b820191906000526020600020905b81548152906001019060200180831161050357829003601f168201915b5050505050905090565b600061053582610d74565b6004600083815260200190815260200160002060009054906101000a900473ffffffffffffffffffffffffffffffffffffffff169050919050565b6040517f08c379a00000000000000000000000000000000000000000000000000000000081526004016105a2906120f2565b60405180910390fd5b6000600880549050905090565b6040517f08c379a00000000000000000000000000000000000000000000000000000000081526004016105ea906120f2565b60405180910390fd5b60006105fe83610852565b821061063f576040517f08c379a000000000000000000000000000000000000000000000000000000000815260040161063690612112565b60405180910390fd5b600660008473ffffffffffffffffffffffffffffffffffffffff1673ffffffffffffffffffffffffffffffffffffffff168152602001908152602001600020600083815260200190815260200160002054905092915050565b6040517f08c379a00000000000000000000000000000000000000000000000000000000081526004016106ca906120f2565b60405180910390fd5b60006106dd6105ab565b821061071e576040517f08c379a000000000000000000000000000000000000000000000000000000000815260040161071590612232565b60405180910390fd5b60088281548110610758577f4e487b7100000000000000000000000000000000000000000000000000000000600052603260045260246000fd5b90600052602060002001549050919050565b60008061077683610dbf565b9050600073ffffffffffffffffffffffffffffffffffffffff168173ffffffffffffffffffffffffffffffffffffffff1614156107e8576040517f08c379a00000000000000000000000000000000000000000000000000000000081526004016107df90612212565b60405180910390fd5b80915050919050565b60006107fd600c610dfc565b9050610809600c610e0a565b6108133382610e20565b61081d8183610e3e565b5050565b600061082d600c610dfc565b9050610839600c610e0a565b6108438382610e20565b61084d8183610e3e565b505050565b60008073ffffffffffffffffffffffffffffffffffffffff168273ffffffffffffffffffffffffffffffffffffffff1614156108c3576040517f08c379a00000000000000000000000000000000000000000000000000000000081526004016108ba90612192565b60405180910390fd5b600360008373ffffffffffffffffffffffffffffffffffffffff1673ffffffffffffffffffffffffffffffffffffffff168152602001908152602001600020549050919050565b610912610e6a565b61091c6000610ee8565b565b6000600a60009054906101000a900473ffffffffffffffffffffffffffffffffffffffff16905090565b60606001805461095790612436565b80601f016020809104026020016040519081016040528092919081815260200182805461098390612436565b80156109d05780601f106109a5576101008083540402835291602001916109d0565b820191906000526020600020905b8154815290600101906020018083116109b357829003601f168201915b5050505050905090565b6040517f08c379a0000000000000000000000000000000000000000000000000000000008152600401610a0c906120f2565b60405180910390fd5b6040517f08c379a0000000000000000000000000000000000000000000000000000000008152600401610a47906120f2565b60405180910390fd5b6060610a5b82610fae565b610a9a576040517f08c379a0000000000000000000000000000000000000000000000000000000008152600401610a91906121f2565b60405180910390fd5b6000600d60008481526020019081526020016000208054610aba90612436565b905011610ad65760405180602001604052806000815250610b73565b600d60008381526020019081526020016000208054610af490612436565b80601f0160208091040260200160405190810160405280929190818152602001828054610b2090612436565b8015610b6d5780601f10610b4257610100808354040283529160200191610b6d565b820191906000526020600020905b815481529060010190602001808311610b5057829003601f168201915b50505050505b9050919050565b6000600560008473ffffffffffffffffffffffffffffffffffffffff1673ffffffffffffffffffffffffffffffffffffffff16815260200190815260200160002060008373ffffffffffffffffffffffffffffffffffffffff1673ffffffffffffffffffffffffffffffffffffffff16815260200190815260200160002060009054906101000a900460ff16905092915050565b610c16610e6a565b600073ffffffffffffffffffffffffffffffffffffffff168173ffffffffffffffffffffffffffffffffffffffff161415610c86576040517f08c379a0000000000000000000000000000000000000000000000000000000008152600401610c7d90612152565b60405180910390fd5b610c8f81610ee8565b50565b60007f80ac58cd000000000000000000000000000000000000000000000000000000007bffffffffffffffffffffffffffffffffffffffffffffffffffffffff1916827bffffffffffffffffffffffffffffffffffffffffffffffffffffffff19161480610d5d57507f5b5e139f000000000000000000000000000000000000000000000000000000007bffffffffffffffffffffffffffffffffffffffffffffffffffffffff1916827bffffffffffffffffffffffffffffffffffffffffffffffffffffffff1916145b80610d6d5750610d6c82610fef565b5b9050919050565b610d7d81610fae565b610dbc576040517f08c379a0000000000000000000000000000000000000000000000000000000008152600401610db390612212565b60405180910390fd5b50565b60006002600083815260200190815260200160002060009054906101000a900473ffffffffffffffffffffffffffffffffffffffff169050919050565b600081600001549050919050565b6001816000016000828254019250508190555050565b610e3a828260405180602001604052806000815250611059565b5050565b80600d60008481526020019081526020016000209080519060200190610e65929190611978565b505050565b610e726110b4565b73ffffffffffffffffffffffffffffffffffffffff16610e9061091e565b73ffffffffffffffffffffffffffffffffffffffff1614610ee6576040517f08c379a0000000000000000000000000000000000000000000000000000000008152600401610edd906121d2565b60405180910390fd5b565b6000600a60009054906101000a900473ffffffffffffffffffffffffffffffffffffffff16905081600a60006101000a81548173ffffffffffffffffffffffffffffffffffffffff021916908373ffffffffffffffffffffffffffffffffffffffff1602179055508173ffffffffffffffffffffffffffffffffffffffff168173ffffffffffffffffffffffffffffffffffffffff167f8be0079c531659141344cd1fd0a4f28419497f9722a3daafe3b4186f6b6457e060405160405180910390a35050565b60008073ffffffffffffffffffffffffffffffffffffffff16610fd083610dbf565b73ffffffffffffffffffffffffffffffffffffffff1614159050919050565b60007f01ffc9a7000000000000000000000000000000000000000000000000000000007bffffffffffffffffffffffffffffffffffffffffffffffffffffffff1916827bffffffffffffffffffffffffffffffffffffffffffffffffffffffff1916149050919050565b61106383836110bc565b61107060008484846112da565b6110af576040517f08c379a00000000000000000000000000000000000000000000000000000000081526004016110a690612132565b60405180910390fd5b505050565b600033905090565b600073ffffffffffffffffffffffffffffffffffffffff168273ffffffffffffffffffffffffffffffffffffffff16141561112c576040517f08c379a0000000000000000000000000000000000000000000000000000000008152600401611123906121b2565b60405180910390fd5b61113581610fae565b15611175576040517f08c379a000000000000000000000000000000000000000000000000000000000815260040161116c90612172565b60405180910390fd5b611183600083836001611471565b61118c81610fae565b156111cc576040517f08c379a00000000000000000000000000000000000000000000000000000000081526004016111c390612172565b60405180910390fd5b6001600360008473ffffffffffffffffffffffffffffffffffffffff1673ffffffffffffffffffffffffffffffffffffffff16815260200190815260200160002060008282540192505081905550816002600083815260200190815260200160002060006101000a81548173ffffffffffffffffffffffffffffffffffffffff021916908373ffffffffffffffffffffffffffffffffffffffff160217905550808273ffffffffffffffffffffffffffffffffffffffff16600073ffffffffffffffffffffffffffffffffffffffff167fddf252ad1be2c89b69c2b068fc378daa952ba7f163c4a11628f55a4df523b3ef60405160405180910390a46112d66000838360016115d1565b5050565b60006112fb8473ffffffffffffffffffffffffffffffffffffffff166115d7565b15611464578373ffffffffffffffffffffffffffffffffffffffff1663150b7a026113246110b4565b8786866040518563ffffffff1660e01b81526004016113469493929190612069565b602060405180830381600087803b15801561136057600080fd5b505af192505050801561139157506040513d601f19601f8201168201806040525081019061138e9190611d78565b60015b611414573d80600081146113c1576040519150601f19603f3d011682016040523d82523d6000602084013e6113c6565b606091505b5060008151141561140c576040517f08c379a000000000000000000000000000000000000000000000000000000000815260040161140390612132565b60405180910390fd5b805181602001fd5b63150b7a0260e01b7bffffffffffffffffffffffffffffffffffffffffffffffffffffffff1916817bffffffffffffffffffffffffffffffffffffffffffffffffffffffff191614915050611469565b600190505b949350505050565b61147d848484846115fa565b60018111156114c1576040517f08c379a00000000000000000000000000000000000000000000000000000000081526004016114b890612252565b60405180910390fd5b6000829050600073ffffffffffffffffffffffffffffffffffffffff168573ffffffffffffffffffffffffffffffffffffffff1614156115095761150481611600565b611548565b8373ffffffffffffffffffffffffffffffffffffffff168573ffffffffffffffffffffffffffffffffffffffff1614611547576115468582611649565b5b5b600073ffffffffffffffffffffffffffffffffffffffff168473ffffffffffffffffffffffffffffffffffffffff16141561158b57611586816117b6565b6115ca565b8473ffffffffffffffffffffffffffffffffffffffff168473ffffffffffffffffffffffffffffffffffffffff16146115c9576115c884826118f9565b5b5b5050505050565b50505050565b6000808273ffffffffffffffffffffffffffffffffffffffff163b119050919050565b50505050565b6008805490506009600083815260200190815260200160002081905550600881908060018154018082558091505060019003906000526020600020016000909190919091505550565b6000600161165684610852565b611660919061234c565b9050600060076000848152602001908152602001600020549050818114611745576000600660008673ffffffffffffffffffffffffffffffffffffffff1673ffffffffffffffffffffffffffffffffffffffff168152602001908152602001600020600084815260200190815260200160002054905080600660008773ffffffffffffffffffffffffffffffffffffffff1673ffffffffffffffffffffffffffffffffffffffff168152602001908152602001600020600084815260200190815260200160002081905550816007600083815260200190815260200160002081905550505b6007600084815260200190815260200160002060009055600660008573ffffffffffffffffffffffffffffffffffffffff1673ffffffffffffffffffffffffffffffffffffffff16815260200190815260200160002060008381526020019081526020016000206000905550505050565b600060016008805490506117ca919061234c565b9050600060096000848152602001908152602001600020549050600060088381548110611820577f4e487b7100000000000000000000000000000000000000000000000000000000600052603260045260246000fd5b906000526020600020015490508060088381548110611868577f4e487b7100000000000000000000000000000000000000000000000000000000600052603260045260246000fd5b9060005260206000200181905550816009600083815260200190815260200160002081905550600960008581526020019081526020016000206000905560088054806118dd577f4e487b7100000000000000000000000000000000000000000000000000000000600052603160045260246000fd5b6001900381819060005260206000200160009055905550505050565b600061190483610852565b905081600660008573ffffffffffffffffffffffffffffffffffffffff1673ffffffffffffffffffffffffffffffffffffffff168152602001908152602001600020600083815260200190815260200160002081905550806007600084815260200190815260200160002081905550505050565b82805461198490612436565b90600052602060002090601f0160209004810192826119a657600085556119ed565b82601f106119bf57805160ff19168380011785556119ed565b828001600101855582156119ed579182015b828111156119ec5782518255916020019190600101906119d1565b5b5090506119fa91906119fe565b5090565b5b80821115611a175760008160009055506001016119ff565b5090565b6000611a2e611a29846122b2565b61228d565b905082815260208101848484011115611a4657600080fd5b611a518482856123f4565b509392505050565b6000611a6c611a67846122e3565b61228d565b905082815260208101848484011115611a8457600080fd5b611a8f8482856123f4565b509392505050565b600081359050611aa68161282d565b92915050565b600081359050611abb81612844565b92915050565b600081359050611ad08161285b565b92915050565b600081519050611ae58161285b565b92915050565b600082601f830112611afc57600080fd5b8135611b0c848260208601611a1b565b91505092915050565b600082601f830112611b2657600080fd5b8135611b36848260208601611a59565b91505092915050565b600081359050611b4e81612872565b92915050565b600060208284031215611b6657600080fd5b6000611b7484828501611a97565b91505092915050565b60008060408385031215611b9057600080fd5b6000611b9e85828601611a97565b9250506020611baf85828601611a97565b9150509250929050565b600080600060608486031215611bce57600080fd5b6000611bdc86828701611a97565b9350506020611bed86828701611a97565b9250506040611bfe86828701611b3f565b9150509250925092565b60008060008060808587031215611c1e57600080fd5b6000611c2c87828801611a97565b9450506020611c3d87828801611a97565b9350506040611c4e87828801611b3f565b925050606085013567ffffffffffffffff811115611c6b57600080fd5b611c7787828801611aeb565b91505092959194509250565b60008060408385031215611c9657600080fd5b6000611ca485828601611a97565b9250506020611cb585828601611aac565b9150509250929050565b60008060408385031215611cd257600080fd5b6000611ce085828601611a97565b925050602083013567ffffffffffffffff811115611cfd57600080fd5b611d0985828601611b15565b9150509250929050565b60008060408385031215611d2657600080fd5b6000611d3485828601611a97565b9250506020611d4585828601611b3f565b9150509250929050565b600060208284031215611d6157600080fd5b6000611d6f84828501611ac1565b91505092915050565b600060208284031215611d8a57600080fd5b6000611d9884828501611ad6565b91505092915050565b600060208284031215611db357600080fd5b600082013567ffffffffffffffff811115611dcd57600080fd5b611dd984828501611b15565b91505092915050565b600060208284031215611df457600080fd5b6000611e0284828501611b3f565b91505092915050565b611e1481612380565b82525050565b611e2381612392565b82525050565b6000611e3482612314565b611e3e818561232a565b9350611e4e818560208601612403565b611e5781612526565b840191505092915050565b6000611e6d8261231f565b611e77818561233b565b9350611e87818560208601612403565b611e9081612526565b840191505092915050565b6000611ea8601d8361233b565b9150611eb382612537565b602082019050919050565b6000611ecb602b8361233b565b9150611ed682612560565b604082019050919050565b6000611eee60328361233b565b9150611ef9826125af565b604082019050919050565b6000611f1160268361233b565b9150611f1c826125fe565b604082019050919050565b6000611f34601c8361233b565b9150611f3f8261264d565b602082019050919050565b6000611f5760298361233b565b9150611f6282612676565b604082019050919050565b6000611f7a60208361233b565b9150611f85826126c5565b602082019050919050565b6000611f9d60208361233b565b9150611fa8826126ee565b602082019050919050565b6000611fc0602f8361233b565b9150611fcb82612717565b604082019050919050565b6000611fe360188361233b565b9150611fee82612766565b602082019050919050565b6000612006602c8361233b565b91506120118261278f565b604082019050919050565b600061202960358361233b565b9150612034826127de565b604082019050919050565b612048816123ea565b82525050565b60006020820190506120636000830184611e0b565b92915050565b600060808201905061207e6000830187611e0b565b61208b6020830186611e0b565b612098604083018561203f565b81810360608301526120aa8184611e29565b905095945050505050565b60006020820190506120ca6000830184611e1a565b92915050565b600060208201905081810360008301526120ea8184611e62565b905092915050565b6000602082019050818103600083015261210b81611e9b565b9050919050565b6000602082019050818103600083015261212b81611ebe565b9050919050565b6000602082019050818103600083015261214b81611ee1565b9050919050565b6000602082019050818103600083015261216b81611f04565b9050919050565b6000602082019050818103600083015261218b81611f27565b9050919050565b600060208201905081810360008301526121ab81611f4a565b9050919050565b600060208201905081810360008301526121cb81611f6d565b9050919050565b600060208201905081810360008301526121eb81611f90565b9050919050565b6000602082019050818103600083015261220b81611fb3565b9050919050565b6000602082019050818103600083015261222b81611fd6565b9050919050565b6000602082019050818103600083015261224b81611ff9565b9050919050565b6000602082019050818103600083015261226b8161201c565b9050919050565b6000602082019050612287600083018461203f565b92915050565b60006122976122a8565b90506122a38282612468565b919050565b6000604051905090565b600067ffffffffffffffff8211156122cd576122cc6124f7565b5b6122d682612526565b9050602081019050919050565b600067ffffffffffffffff8211156122fe576122fd6124f7565b5b61230782612526565b9050602081019050919050565b600081519050919050565b600081519050919050565b600082825260208201905092915050565b600082825260208201905092915050565b6000612357826123ea565b9150612362836123ea565b92508282101561237557612374612499565b5b828203905092915050565b600061238b826123ca565b9050919050565b60008115159050919050565b60007fffffffff0000000000000000000000000000000000000000000000000000000082169050919050565b600073ffffffffffffffffffffffffffffffffffffffff82169050919050565b6000819050919050565b82818337600083830152505050565b60005b83811015612421578082015181840152602081019050612406565b83811115612430576000848401525b50505050565b6000600282049050600182168061244e57607f821691505b60208210811415612462576124616124c8565b5b50919050565b61247182612526565b810181811067ffffffffffffffff821117156124905761248f6124f7565b5b80604052505050565b7f4e487b7100000000000000000000000000000000000000000000000000000000600052601160045260246000fd5b7f4e487b7100000000000000000000000000000000000000000000000000000000600052602260045260246000fd5b7f4e487b7100000000000000000000000000000000000000000000000000000000600052604160045260246000fd5b6000601f19601f8301169050919050565b7f695361693a205472616e73666572732061726520666f7262696464656e000000600082015250565b7f455243373231456e756d657261626c653a206f776e657220696e646578206f7560008201527f74206f6620626f756e6473000000000000000000000000000000000000000000602082015250565b7f4552433732313a207472616e7366657220746f206e6f6e20455243373231526560008201527f63656976657220696d706c656d656e7465720000000000000000000000000000602082015250565b7f4f776e61626c653a206e6577206f776e657220697320746865207a65726f206160008201527f6464726573730000000000000000000000000000000000000000000000000000602082015250565b7f4552433732313a20746f6b656e20616c7265616479206d696e74656400000000600082015250565b7f4552433732313a2061646472657373207a65726f206973206e6f74206120766160008201527f6c6964206f776e65720000000000000000000000000000000000000000000000602082015250565b7f4552433732313a206d696e7420746f20746865207a65726f2061646472657373600082015250565b7f4f776e61626c653a2063616c6c6572206973206e6f7420746865206f776e6572600082015250565b7f4552433732314d657461646174613a2055524920717565727920666f72206e6f60008201527f6e6578697374656e7420746f6b656e0000000000000000000000000000000000602082015250565b7f4552433732313a20696e76616c696420746f6b656e2049440000000000000000600082015250565b7f455243373231456e756d657261626c653a20676c6f62616c20696e646578206f60008201527f7574206f6620626f756e64730000000000000000000000000000000000000000602082015250565b7f455243373231456e756d657261626c653a20636f6e736563757469766520747260008201527f616e7366657273206e6f7420737570706f727465640000000000000000000000602082015250565b61283681612380565b811461284157600080fd5b50565b61284d81612392565b811461285857600080fd5b50565b6128648161239e565b811461286f57600080fd5b50565b61287b816123ea565b811461288657600080fd5b5056fea26469706673582212206e2a57215d31b2f21b63061b4dd85e7f48a822d4981a9c81add1206372356d0064736f6c63430008040033",
  "linkReferences": {},
  "deployedLinkReferences": {}
}